:020000040800F2
:10000000500A0220BD020008953B00083930000864
:10001000C90200080718000809470008000000008E
:100020000000000000000000000000007D3F00080C
:100030009118000800000000973B000821400008CC
:10004000D7020008D7020008D7020008D70200082C
:10005000D7020008D7020008D7020008D70200081C
:10006000D7020008D7020008D7020008D70200080C
:10007000D7020008D7020008D7020008D7020008FC
:10008000D7020008D7020008D7020008D7020008EC
:10009000D7020008D7020008D7020008D7020008DC
:1000A000D702000889400008D70200087D400008F8
:1000B000D7020008D7020008D7020008D7020008BC
:1000C000D7020008D7020008D7020008D7020008AC
:1000D000D7020008E5460008F1460008FD46000882
:1000E000D7020008D7020008D7020008D70200088C
:1000F000D7020008D7020008D7020008D70200087C
:10010000D7020008D7020008D7020008D70200086B
:10011000D7020008D7020008D7020008D70200085B
:10012000D7020008D7020008D7020008D70200084B
:10013000D7020008D7020008D7020008D70200083B
:10014000D7020008D7020008D7020008D70200082B
:10015000D7020008D7020008D7020008D70200081B
:10016000D7020008D7020008D7020008D70200080B
:10017000D7020008D7020008D702000800000000DC
:10018000D7020008D7020008D7020008D7020008EB
:10019000D7020008D7020008D7020008D7020008DB
:1001A000D7020008D7020008D7020008D7020008CB
:1001B000D7020008D7020008D7020008D7020008BB
:1001C000D7020008D702000800000000D70200088C
:1001D000D7020008D7020008D7020008D70200089B
:1001E000D7020008D7020008D7020008D70200088B
:1001F000D7020008D702000800F002F800F04FF81C
:100200000AA090E8000C82448344AAF10107DA4571
:1002100001D100F044F8AFF2090EBAE80F0013F074
:10022000010F18BFFB1A43F001031847AC950000FB
:10023000CC950000103A24BF78C878C1FAD852078C
:1002400024BF30C830C144BF04680C607047000050
:100250000023002400250026103A28BF78C1FBD8CF
:10026000520728BF30C148BF0B607047732900F0A8
:10027000FC80002070471FB504F01AFE00F06AFCF5
:1002800004000020002104F0F5FD401C6060002007
:10029000002104F0D9FDE0601FBD10B510BD00F0D5
:1002A0009BF91146FFF7E7FF04F0BCFB00F014FCDC
:1002B00003B4FFF7F2FF03BC04F015FB09488047C5
:1002C00009480047FEE7FEE7FEE7FEE7FEE7FEE738
:1002D000FEE7FEE7FEE7FEE704480549054A064B50
:1002E0007047000025400008F90100085004022072
:1002F000500A0220500602205006022070470000DB
:100300000FB4044910B503AA029800F0B3F810BC6A
:100310005DF814FB240002202DE9F0410E4604464E
:10032000002020622046E168884730B3252805D0A8
:10033000D4E901219047206A401CF2E7E168204699
:1003400000278847050018D0A5F14100192802D8D8
:1003500020354FF400673246294620462760FFF7D4
:1003600085FF40B1012804D0F61D26F007060836A7
:10037000D8E7361DD6E72846DAE7206ABDE8F081DF
:1003800070B50C460546012A05D02878800600D5B0
:10039000EA69002302E0012305E05B1C934202D2DC
:1003A000E05C0028F9D1A869E618C01AA861286A9B
:1003B000184428622846AFF3008004E0D5E9012103
:1003C00014F8010B9047B442F8D32846AFF30080ED
:1003D00070BD10B5431C02E010F8011B71B181071C
:1003E000FAD14FF0013202C88C1A8C4314EAC211C0
:1003F000F9D0C01A0A0603D0C01E10BDC01A10BD25
:100400000A0401D0801E10BD0902FCD0401E10BDA0
:10041000421E12F8013F002BFBD111F8013B002BCB
:1004200002F8013BF9D17047704770477047704739
:1004300010B500F083F8006810BD10B5044600F058
:100440007DF8046010BD10B5436913B1AFF30080AF
:1004500001E0FFF795FF012010BD127800F12401A3
:100460000A7000224A700122EDE711684FF0FF3256
:10047000E9E70000074B70B50D467B4400F071F8CA
:100480000446284600F0A0F810B14FF0FF3070BDD0
:10049000204670BDFF4400000FB4002300B589B0B2
:1004A0000CA900910B99CB60214B7B440693214B07
:1004B0007B44079304236FF00042CDE901321E4ACA
:1004C0007A446B4608920246002004F056FD09B0BB
:1004D0005DF814FB70B506464FF0FF3015460C462C
:1004E000324686B00091CDE90101694600200490B2
:1004F00004A8FFF7D1FF02460498211825B108B1DE
:10050000084600E020462860049800280DD0002A04
:1005100002DD0098884208D03246081B69460094E4
:10052000CDE9010404A8FFF7B7FF06B070BD0000D5
:10053000DB000000F300000081000000004870476D
:10054000EC03022010B5044600F06CF80068005D72
:1005500000F0010010BD000001694A1C026108782A
:10056000704700B58FB0CDE90131002105910549F3
:100570007944CDE9031011466846FFF7CDFE0FB070
:1005800000BD0000E5FFFFFF426842B1016811F8BD
:10059000013B23B1521EC0E90012184670470121E9
:1005A000C160881E704742685AB1C368016843B988
:1005B00083688B4205D0491E521CC0E900120020FE
:1005C00070474FF0FF307047007B00F080007047AD
:1005D00000487047EC0302207546FFF7F9FFAE466E
:1005E00005006946534620F00700854618B020B53F
:1005F000FFF772FEBDE820404FF000064FF0000705
:100600004FF000084FF0000B21F00701AC46ACE8BA
:10061000C009ACE8C009ACE8C009ACE8C0098D4627
:100620007047000010B500F095FA001D10BD00BF26
:10063000454800002DE9FF4F064689B00878FF289D
:1006400006D0491C2D2805D000244FF0000908E0F1
:1006500000200CE00124F8E709EB8903491C00EBBA
:1006600043090878FF28F7D114B1C9F10000814689
:10067000107800252C46AA4629462D2801D02B2883
:1006800004D1521C2D2813D0002082468B461078AE
:10069000FF280FD04FF0000C0A21521CA5FB017857
:1006A00004FB018105FB0C11C5194BEB0104EEE7BE
:1006B0000120EAE7002108464FF00000BAF1000FE0
:1006C00002D000EB80004008C0F38158B8F1010F60
:1006D00001DD4FF0FF380C9809EB000755EA0400E4
:1006E00009D04FF0020917F5FA7F0BDA4FEACA700A
:1006F000C6E900B012E04FEACA70C6E900B00DB01A
:10070000BDE8F08FB7F5FA7F0DDDF0487844D0E909
:100710000010C6E9001040EACA707060FFF70EFFD3
:10072000C0F80090EBE7391E02DAC8F1000200E0E1
:10073000424600DA794206A800F010FA06AB93E8C8
:10074000070003AB83E8070044F23E005BEA0401C4
:100750000090584604D144F21E012C465D4600919B
:10076000210C0904014306D10099240444EA1544EC
:100770002D041039009104F07F41014306D1009906
:10078000240244EA15642D020839009104F07041F6
:10079000014306D10099240144EA15742D01091F73
:1007A000009104F04041014306D10099A40044EABD
:1007B0009574AD00891E009104F00041084304D1F6
:1007C00000986D196441401E009042466846002F13
:1007D000CDE9014503A902DD00F0DFFE01E000F0F4
:1007E000B4FEBAF1000F04460D4601D084F0004477
:1007F00040F2FF7724F00040284303D0C4F30A50AE
:10080000B84212D1FFF79AFEC0F80090C4F30A5024
:10081000B8420AD1AE487844D0E90010C6E90010C9
:1008200004F000410843706069E7C6E9005466E7D8
:100830002DE9FF4F1F464FF0000A4FF0FF384546A5
:1008400091B0D7E90146CDF83CA000F083F9C0682B
:100850000168405C1090B96912986D1C8847396A2C
:10086000814688470028F6D1B9F1FF3F0AD0002E13
:1008700024F4D06411DDB9F12B0F08D0B9F12D0F9C
:100880000BD102E0404615B03AE744F48064B96900
:1008900012986D1C8847761E8146600504A901D513
:1008A0002D2000E02B20002E01F1010B0DF130086E
:1008B0008DF810003FDDB9F1690F08D0B9F1490F8B
:1008C00005D0B9F16E0F02D0B9F14E0F1CD13B46E5
:1008D00001A8009580E85002DDE912126FF00200D5
:1008E00004F04FFBC11CCED10EE0B96912986D1C0B
:1008F000884781461398761E44F4007405600F986B
:10090000401C002E0F9016DDB9F1300FEDD0B9F17B
:10091000780F02D0B9F1580F0DD10F9801280AD1E4
:100920003B46CDE90054DDE91212001F029604F0A7
:1009300026FBC11CA7D1109989453ED144F0800403
:1009400006E01399681CAAF1010A44F400740860D7
:10095000B9696D1C1298761E884730288146F0D000
:100960002BE01099894505D1200603D4761E44F06A
:10097000800418E0484603F0AFFF08B3761E0DF17F
:1009800023018B4544F4007408D2A9F130000BF820
:10099000010B200607D5AAF1010003E0200602D4CE
:1009A0000AF101008246A00502D51399681C08606F
:1009B000B96912986D1C88478146002ED1DC53E03E
:1009C000002E51DDB9F1650F02D0B9F1450F4BD1C1
:1009D000A00549D5B9696D1C1298761E24F440749F
:1009E0008847002E81460CDD2B2804D0B9F12D0F4D
:1009F00007D144F48074B96912986D1C8847761E3B
:100A00008146E00501D52D2100E02B2108F8011BCE
:100A1000CDF8008021E0761E0DF13901884544F4BF
:100A200000740CD2A9F1300010F0FF0088F800002B
:100A300002D10099884509D908F1010806E0E005CE
:100A400001D5244801E042F20F708246B96912983C
:100A50006D1C8847814613980560002E04DD4846CA
:100A600003F03AFF0028D6D1F96912988847FF2091
:100A700053468BF8000088F8000000200A900B9085
:100A800004AA0CA90AA8FFF7D5FDA00502D46FF0AF
:100A90000100F8E614F0240F0AD0E00714D13868FA
:100AA000DDE90A12031D3B600068C0E900120BE09B
:100AB0000AA9684603F060FEE00705D13868009A8D
:100AC000011D3960006802602846DCE6E8900000FD
:100AD000DE8F0000F1D8FFFF10B50446AFF30080B1
:100AE0002046BDE81040FFF7E3BB00004FF0013C9B
:100AF00050F8042B51F8043B9A4215D1A2EB0C0399
:100B0000934313EACC130BD150F8042B51F8043B58
:100B10009A4209D1A2EB0C03934313EACC13E7D01A
:100B20004FF00000704700BFD01A01BAB1FA81F14E
:100B300001F0180122FA01F0CB40C1F12001DBB233
:100B4000C0B2C01A2CFA01F3D11A914311EAC311B1
:100B5000E6D17047004870470C0402202DE9F047A9
:100B6000814616468AB0334878440DC88DE80D009A
:100B700030487844801C03AC0DC884E80D0041F671
:100B80009B300844372190FBF1F290FBF1F5A5F181
:100B9000800501FB12041B3C02D56442012000E0E9
:100BA0000020DFF890A080460027FA44AAF1BE0A90
:100BB0000DE0E00709D03246684607EB47010AEB33
:100BC000810100F0D6FC8DE8070064107F1C002C2A
:100BD000EFD1184F7F44AC3F18E0E80714D007EB83
:100BE00004100DF1180A90E80E008AE80E00C068A3
:100BF000F04201D198190890324606A903A800F0E6
:100C0000B8FC03AB83E807006D10641C002DE4D131
:100C100032466946B8F1000F03A802D000F081FC0B
:100C200001E000F0A6FCC9E90001C9F808200AB0FB
:100C3000BDE8F087548C00002DE9FF4F1F464FF0B0
:100C40003C0987B04FF00042DDE9141001F10108C2
:100C5000DDF858A002EA405003900020059083463A
:100C6000054604460490B969461E08988847AAF1CB
:100C7000010A0290BAF1000F3BDD02982E2815D030
:100C8000102100F016FA00282EDB4FF0010B059919
:100C9000014317D0B9F1000F0BDB4A46C11700F032
:100CA000F5F905430C43A9F1040905E0012004907E
:100CB0000BE008B145F0010501200590049820B92A
:100CC000361D02E0049800B1361FB969089808F192
:100CD00001088847BBF1000FAAF1010A0290C9D0B0
:100CE0000999C1F80080C5E70298702808D05028FB
:100CF00006D0F96908988847BBF1000F14D04FE07F
:100D0000002002900120BBF1000F049009D0B969C6
:100D1000089808F101088847AAF10109B9F1000F04
:100D200007DCF969089888476FF001000BB0BDE84F
:100D3000F08F2B2804D02D280CD14FF0FF300490D9
:100D4000B969089808F101088847A9F10109B9F1C2
:100D5000000FE6DD411CE4D00A2100F0AAF90028CA
:100D6000DFDB029908F1010801EB810100EB410092
:100D70000290B969089888470A2100F09AF9099AFF
:100D8000A9F10109B9F1000FC2F8008001DD0028C6
:100D9000E7DAF969089888470499029800FB016628
:100DA00055EA040004D004F04041090002D006E0F6
:100DB000039898E0A40044EA9574AD00B61E04F0D0
:100DC0000041080002D16D196441761E159810F09B
:100DD000240F03D04FF00B095C4803E04FF02809C3
:100DE0006FF07D008246564507DAAAEB060189447A
:100DF000B9F1410F01DD4FF0410901200021A9F1B6
:100E0000010200F043F9024628400B462140084306
:100E100001D0012100E00021501E029143F1FF3179
:100E200028402140084301D0012000E00020029921
:100E3000834651EA0B014FD0002108464FF00000D5
:100E4000039900F4400039B100EB80004FF44001F9
:100E500000EBD07001EA60008015012802DD4FF040
:100E6000FF3000E013D0401C36D0029860B3BBF1D5
:100E7000000F0CD14A460120002100F007F928405C
:100E80002140084301D0012000E00020E0B1012012
:100E90004A46002100F0FAF8034640190A4661412B
:100EA0002D1A8C4111D3B9F1400F09DD159810F0BE
:100EB000240F02D0AAF1340603E0AAF1170600E0DD
:100EC000761C00254FF0004406E05B1E42F1FF3225
:100ED00020EA030521EA0204CAF10100B04206DA61
:100EE0001B49039808430190002000900EE0039AEC
:100EF000C4F3D321E80A0A43164940EA44500A439E
:100F00003146CDE90002684603F08AFC159810F0DE
:100F1000240F0BD01598C00715D13868DDE90012F1
:100F2000031D3B600068C0E900120CE002A869469E
:100F300003F022FC1598C00705D13868029A011DFC
:100F40003960006802604046F0E6000002FCFFFFE6
:100F50000000F07F0000F03F2DE9FF4F92461D4654
:100F600085B04FF00041DDE9124BDDE914727F1EC0
:100F700001EA4B50414940F0FF4940EA0108002195
:100F800022F020004928049102D04E2828D04CE0BD
:100F90003BA0012607C88DE80700A9690698641CD4
:100FA00088477F1E014606D41DF8060018B121F0BF
:100FB000200181420BD0E96906988847032E34D07E
:100FC000082E32D06FF0010009B0BDE8F08F761C1A
:100FD000032E01D0082EE0D1601CCAF80000DCE727
:100FE000A9690698641C88477F1E2AD420F0200037
:100FF000412826D1A9690698641C88477F1E20D401
:1010000020F020004E281CD1A9690698641C88474E
:101010007F1E48F4002849F48009CAF8004001D432
:10102000282806D0E969069888475FEACB7012D075
:1010300022E0A9690698641C88477F1E01D4002815
:1010400003DAE96906988847BCE72928F1D1641CCE
:10105000CAF80040E9E71BF0240F07D0286804997C
:10106000031D2B600068C0E9001805E02868021D18
:101070002A600068C0F800902046A5E70000F07FD5
:10108000494E46494E49545900000000B2F1200330
:101090000AD5C2F1200301FA02F120FA03F300FAA3
:1010A00002F041EA0301704700FA03F14FF000003B
:1010B00070473A2800D2303820F02002412A01D36C
:1010C000A2F13700884201D34FF0FF30704720F083
:1010D0007F4C80EA030023F07F47ACEB070303F566
:1010E0007C5300F0004003F1FF032DE980494FEAF3
:1010F000154B09B44FEA144325EA0B4E24EA034882
:101100000FF2042606EB132749083E785FEA320205
:1011100003FB0667C7F5000707FB06F64FEA5437DF
:101120004FEAD64606F1020607FB066CCCF1005CDE
:101130004FEA1C472CEA074C07FB06F40CFB06F5AC
:1011400004EB15464FEA961634BF00204FF00040DE
:101150004FEAD13706FB07FC4FEA1C4C0CFB0BF7A0
:10116000D21B03FB0CF761EB07010CFB0EF7B0EB96
:10117000074072EB17420CFB08F734BFA2EB0742A3
:10118000B2EB074261EB17414FEA0C444FEA91077B
:1011900006FB07FC4FEA1C4C0CFB0BF7B0EBC740FF
:1011A00072EB573203FB0CF734BFA2EBC742B2EB32
:1011B000C74261EB57310CFB0EF7B0EBC70072EB87
:1011C00057720CFB08F734BFA2EBC702B2EBC702A1
:1011D00061EB5771039F4FEA816141EA921104EB81
:1011E000CC044FEAD1374FEA826206FB07FC42EAA1
:1011F00090124FEA80604FEA1C4C0CFB0BF7D21B9D
:1012000003FB0CF761EB07010CFB0EF7B0EB07409B
:1012100072EB17420CFB08F734BFA2EB0742B2EBAC
:10122000074261EB17414FEA8C554FEA910704EBF7
:101230009C2406FB07FC4FEA1C4C0CFB0BF7B0EBA5
:10124000C74072EB573203FB0CF734BFA2EBC74227
:10125000B2EBC74261EB57310CFB0EF7B0EBC700A6
:1012600072EB57720CFB08F734BFA2EBC702B2EB6C
:10127000C70261EB577115EB4C254FEA816141EADA
:1012800092114FEA82624FEAD13742EA901206FB8E
:1012900007FC44F100044FEA80604FEA1C4C0CFB51
:1012A0000BF7D21B03FB0CF761EB07010CFB0EF7EE
:1012B000B0EB074072EB17420CFB08F734BFA2EB10
:1012C0000742B2EB074261EB174115EB1C154FEAE1
:1012D000813141EA92414FEA823242EA90424FEA3A
:1012E00080304FEA0C7644F1000448EA03434EEAAA
:1012F0000B484FF0000EB2EB080C71EB030724BF54
:10130000624639464EEB0E0E4FF0000B001852416C
:1013100049414BEB0B0BB2EB080C71EB03077BF174
:10132000000B24BF624639464EEB0E0E4FF0000B09
:101330000018524149414BEB0B0BB2EB080C71EB1F
:1013400003077BF1000B24BF624639464EEB0E0EBD
:1013500051EA020718BF46F0010616EB0E7655F16A
:10136000000254F1000103D5BDE88901BDE8008801
:10137000BDE88901BDE80048B619524141EB0101C1
:10138000A3F10103704780807F7E7D7C7B7A797832
:10139000777676757473727171706F6E6E6D6C6C3A
:1013A0006B6A6A69686867666665646463636261DC
:1013B0006160605F5F5E5E5D5D5C5C5B5B5A5A595D
:1013C00059585857575656555555545453535252C9
:1013D0005251515050504F4F4F4E4E4D4D4D4C4C21
:1013E0004C4B4B4B4A4A4A4949494848484747476A
:1013F00047464646454545444444444343434342A7
:10140000424242414141000046EA0646A3F570537C
:101410004FEA164646EA42564FEAD22242EA415283
:1014200010B54FEAD121A3F1010300F017F820F025
:10143000004000F1010C00F0004701EB00501146A4
:10144000BCF5006F40EA070000D210BD02484FF023
:10145000000140EA070010BD0000F07F002B26D4F9
:10146000770021D01CB54FEA370703B44FF01000C6
:101470004FF010014FF000000FBCBDE810400BF121
:10148000010BBBF1010F08BF5FEA170722BF12F182
:10149000010211F101014FF0004143F1000300F09E
:1014A000004043EA00007047F9D35708DAE746EAFC
:1014B000064613F1400F4FEA16461FDD13F1200FC9
:1014C000DFBF16430A46002120335B42C8D0C3F178
:1014D000200746EA064602FA07F74FEA164646EAAA
:1014E0000706C3F1200722FA03F201FA07F721FAEF
:1014F00003F14FF0000342EA0702B1E746EA0206B1
:1015000046EA06464FEA164646EA0106BCBF46EAE8
:101510000646360C4FF000034FF000024FF000017A
:101520009EE72DE9C048934630B491E8380007C8DB
:1015300031EA400C48BF34EA430C03D5FFF7C7FD3E
:10154000FFF78CFFF0BCBDE800882DE9C04893464A
:1015500030B491E8380007C831EA400C48BF34EA9B
:10156000430C03D5FFF7B3FDFFF74EFFF0BCBDE81A
:1015700000882DE9C048934630B491E8380007C888
:1015800010F0804F08BF13F0804F03D100F019F81E
:10159000FFF764FFF0BCBDE800882DE9C048934622
:1015A00030B491E8380007C810F0804F08BF13F03E
:1015B000804F03D100F005F8FFF726FFF0BCBDE82F
:1015C000008820F07F4780EA030023F07F4C07EB80
:1015D0000C03A3F57C5300F00040A3F1FE0392F04E
:1015E000000F00F0B38095F0000F00F077802DE938
:1015F00001494FEA11404FEA144621EA004800FB36
:1016000006FC24EA064708FB06F607FB08F800FB81
:1016100007F718EB06484CEB164C4FEA124B18EB49
:1016200007484FEA15464CEB174022EA0B4E0BFBDE
:1016300006FC25EA06470EFB06F607FB0EFE0BFB33
:1016400007F71EEB064E4CEB164C4FF000061EEB58
:10165000074E4CEB174B18EB0B0840F1000018EB52
:101660000E0B58EB000840F100008F1A4FF00001FC
:101670003CBFC943661B14BFB5EB040C00213CBF43
:10168000C943F61B4FEA17444EEA8E0E27EA04457B
:101690004FEA1C4704FB07622CEA074C05FB07F7DF
:1016A0000CFB05F604FB0CFC16EB074642EB17425D
:1016B00016EB0C4642EB1C421BEB060658EB0202F3
:1016C000414146EA9E0601D5BDE80189B61952415D
:1016D00041EB0101A3F10103BDE801894FEA144583
:1016E0004FEA114724EA054621EA074C05FB07F4B7
:1016F00006FB07F70CFB06F105FB0CFC11EB0741A1
:1017000044EB17444FEA124711EB0C4144EB1C44E5
:1017100022EA074C05FB07F206FB07F70CFB06F66F
:1017200005FB0CFC16EB074642EB174216EB0C468A
:1017300042EB1C456A1854F1000148BF7047B619C6
:10174000524141EB0101A3F10103704795F0000FF5
:1017500037D04FEA11424FEA144721EA024624EA01
:10176000074C02FB07F106FB07F70CFB06F402FB34
:101770000CFC14EB074441EB17414FEA154714EBFF
:101780000C4441EB1C4125EA074C02FB07F506FB24
:1017900007F70CFB06F602FB0CFC16EB074645EBC5
:1017A000174516EB0C4645EB1C42121951F100018E
:1017B00048BF7047B619524141EB0101A3F1010343
:1017C00070474FEA14454FEA114724EA054621EADB
:1017D000074C05FB07F106FB07F70CFB06F24FF081
:1017E000000605FB0CFC12EB074241EB174112EB24
:1017F0000C4251EB1C4148BF7047921841EB01016C
:10180000A3F101037047FEE770B4BFF34F8FBFF33E
:101810006F8F1A4900200860194D296841F4003182
:101820002960BFF34F8FBFF36F8F16490860BFF376
:101830004F8F081F006843F6FF76134AC0F34E3CF3
:10184000C0F3C90406EA4C11204641EA80731360D4
:10185000401EFAD2BCF1010CF4D2BFF34F8F2868BE
:1018600040F480302860BFF34F8FBFF36F8F07487D
:10187000016841F00401016070BC704750EF00E066
:1018800014ED00E084ED00E060EF00E09CEF00E08C
:10189000704770474DF8044DD1E901320C6813438D
:1018A000D1E903C24CEA02021A434B6913438A6925
:1018B000012C046843EA020CCB690A6A496A08D021
:1018C0004CEA03031A4311436FF30E0421430160F2
:1018D0000BE024F4F8441A4321430A4341680260B0
:1018E0006FF30E014CEA010141605DF8044B0020EA
:1018F0007047426942EA4101416100207047F8B5F2
:1019000014460546D1E900026FF01F0310438A68B0
:10191000C96803EB421242EA412108430090286162
:1019200000F098F90646A86910F0200F0ED0B4F127
:10193000FF3F07D024B100F08DF9801BA04201D9F0
:101940000320F8BDA86910F0200FF0D10020F8BDE9
:101950002DE9F001D1F804C06FF00F050B682C01E0
:101960005B1E05EB0C1C43EA0C03D1F808C04FEAE0
:101970000428270304EB0C2C43EA0C050B8A2604ED
:10198000CC68012A826808EB034C8B8A097E07EB3E
:10199000035306EB01610DD0361306EB04342C43E0
:1019A00044EA0C0C4CEA0303194302F07042114361
:1019B000816012E0240322F47042A4F58054234392
:1019C00022F470021A43C36845EA0C0C826003F0EB
:1019D00070434CEA01011943C160BDE8F0010020E9
:1019E000704790F83510022903D08021416501200D
:1019F0007047052180F835100068016821F0010169
:101A000001600020704700002DE9F84FDFF81C92BC
:101A10000022DFF814820F2709F1040A4FF0010EAB
:101A20000B680EFA02F52B40AB4240F0F780D1F87C
:101A300004C0BCF1020F18BFBCF1120F12D14FEA63
:101A4000D20C00EB8C0CDCF820605407E40E07FA93
:101A500004FB26EA0B06D1F810B00BFA04F4344369
:101A6000CCF8204006684FEA420C91F804B00324F9
:101A70000BF0030B04FA0CF4A6430BFA0CFB4BEA35
:101A8000060606604E68012E18BF022E03D0112EE6
:101A900018BF122E11D18668D1F80CB0A6430BFAEC
:101AA0000CFB4BEA06068660466826EA05050E79B9
:101AB000C6F30016964035434560C56825EA040420
:101AC0008D6805FA0CFC4CEA040CC0F80CC0D1F887
:101AD00004C01CF0805F7CD0D8F800C04CF4804C6F
:101AE000C8F800C0D8F800C00CF4804CCDF800C095
:101AF00022F0030C0CF1804505F59835D5F808C89F
:101B00009407240F07FA04F62CEA0606A0F1804C8D
:101B1000BCF5003C48D0A0F1804CBCF5013C08BFAE
:101B20004FF0010C40D0A0F1804CBCF5023C08BF46
:101B30004FF0020C38D0A0F1804CBCF5033C08BF3C
:101B40004FF0030C30D0A0F1804CBCF5043C08BF32
:101B50004FF0040C28D0A0F1804CBCF5053C08BF28
:101B60004FF0050C20D0A0F1804CBCF5063C08BF1E
:101B70004FF0060C18D0A0F1804CBCF5073C08BF14
:101B80004FF0070C10D0A0F1804CBCF5083C08BF0A
:101B90004FF0080C08D0A0F1804CBCF5093C0CBFFC
:101BA0004FF0090C4FF00A0C0CFA04FC4CEA060C3E
:101BB000C5F808C8D9F800C04C682CEA030C14F426
:101BC000803F18BF4CEA030CC9F800C0DAF800C027
:101BD00000E023E04C682CEA030C14F4003F18BF2B
:101BE0004CEA030CCAF800C0114CD4F800C04D6890
:101BF0002CEA030C15F4801F18BF4CEA030CC4F840
:101C000000C00C4CD4F800C04D682CEA030C15F44D
:101C1000001F18BF4CEA030CC4F800C0521C102A65
:101C2000FFF4FEAEBDE8F88F44380240003C0140AE
:101C3000083C01400C3C01400069084018BF0120ED
:101C400070474269514041617047002A08BF09044A
:101C50008161704701480068704700001800022049
:101C600002480168491C016070470000180002200A
:101C7000074810B5016841F400710160052000F0CB
:101C80005DF80F2000F006F800F018F8002010BDF5
:101C9000003C024010B5044607484FF47A720068D1
:101CA000B0FBF2F000F080FC00222146501E00F054
:101CB00013F8002010BD000014000220704701221C
:101CC00000F01F0102FA01F14009800000F1E0205C
:101CD000C0F8001170470000174B4DF8044D1B6809
:101CE000C3F30223C3F1070CBCF1040F88BF4FF00C
:101CF000040C1C1D072C34BF0023DB1E012404FA36
:101D00000CFCACF1010C0CEA0101994004FA03F35C
:101D10005B1E1A40114300284FEA0111B8BF00F0C2
:101D20000F0000F1E020B4BF80F8141D80F800140B
:101D30005DF8044B704700000CED00E0074A00F02E
:101D4000070011684FF6FF03194041EA002040F0F8
:101D5000FD7040F080601060704700000CED00E006
:101D60001C4838B5016841F08051016000681A4C88
:101D700000F080500090206840F480302060FFF731
:101D800069FF0546606810F4803F09D1FFF762FFE4
:101D9000401BB0F57A7F14D8606810F4803FF5D00E
:101DA000206840F400302060FFF754FF054660686B
:101DB00010F4003F0BD1FFF74DFF401BB0F57A7FC9
:101DC00001D9032038BD606810F4003FF3D0002033
:101DD00038BD000040380240007000402DE9F04757
:101DE000DFF8688104460D46D8F8000000F00F00C7
:101DF000A8420CD2D8F8000020F00F002843C8F801
:101E00000000D8F8000000F00F00A84270D1207840
:101E10004F4F10F0020F05D03868A16820F0F00095
:101E200008433860207810F0010F4ED060684949AF
:101E3000012820D00968022822D011F0020F57D0C3
:101E4000396821F0030108433860FFF703FF0646B5
:101E5000606841F28839012816D00228386800F0FD
:101E60000C0021D0F8B1FFF7F5FE801B484528D9BA
:101E70000320BDE8F087096811F4003FE0D137E0A6
:101E800011F0007FDCD133E0386800F00C0004284A
:101E90001BD0FFF7DFFE801B4845E9D8386800F00B
:101EA0000C000428F5D110E008280ED0FFF7D2FE70
:101EB000801B4845DCD8386800F00C000828F5D1B4
:101EC00003E0386810F00C0FCDD1D8F8000000F016
:101ED0000F00A8420FD9D8F8000020F00F002843C7
:101EE000C8F80000D8F8000000F00F00A84202D0A7
:101EF0000120BDE8F087207810F0040F05D0386885
:101F0000E16820F4E05008433860207810F0080FB2
:101F100006D03868216920F4604040EAC10038608A
:101F200000F04EF83968F02292FAA2F201F0F001C6
:101F3000B2FA82F2D140084A515CC84007490860B1
:101F40000F20FFF7A7FE0020BDE8F087003C02400D
:101F50000838024000380240B64F00081400022042
:101F600008480949006809684FF4E05292FAA2F261
:101F700001F4E051B2FA82F2D140044A515CC84007
:101F8000704700001400022008380240C64F0008C5
:101F900008480949006809684FF4604292FAA2F2C1
:101FA00001F46041B2FA82F2D140044A515CC84067
:101FB000704700001400022008380240C64F000895
:101FC0002148006810F00C01204808BF7047DFF876
:101FD00080C0042904BF60467047082918BF7047B5
:101FE0004DF8044D1B4A1168136801F03F0113F4CA
:101FF000800F47F6C0730BD0BCFBF1F0116819409D
:1020000093FAA3F3B3FA83F3D94000FB01F00AE09B
:10201000B0FBF1F01168194093FAA3F3B3FA83F31C
:10202000D94000FB01F011684FF440325DF8044BD9
:1020300092FAA2F201F44031B2FA82F2D140491C84
:102040004900B0FBF1F07047083802400024F4006A
:1020500040787D01043802402DE9F84FDFF8A8836D
:1020600004460078A8F1040710F0010FA7F1040559
:102070005AD0D8F8000000F00C00042809D0D8F895
:10208000000000F00C0008280CD1386810F4800F14
:1020900008D0286810F4003F46D06068002800F09F
:1020A000AF8141E06068B0F5803F04BF286840F42C
:1020B00080300AD010B1B0F5A02F11D0286820F4DC
:1020C00080302860286820F4802028606068D0B1C3
:1020D000FFF7C0FD0646286810F4003F08D023E053
:1020E000286840F480202860286840F48030ECE7BD
:1020F000FFF7B0FD801B642800F22581286810F4EA
:10210000003FF5D010E0FFF7A5FD0646286810F463
:10211000003F09D0FFF79EFD801B642800F2138169
:10212000286810F4003FF5D1207810F0020F50D04D
:10213000D8F800004FF0F80910F00C0F18D0D8F8BC
:10214000000000F00C00082804BF386810F4800F6D
:102150000ED0E0680028286828D040F001002860F0
:10216000FFF778FD0646286810F0020F09D011E04D
:10217000286810F0020F1CBFE06801280AD000F0A8
:102180003FB9FFF767FD801B02287DD8286810F053
:10219000020FF6D0286899FAA9F22169B2FA82F200
:1021A00020F0F80091400843286012E020F0010080
:1021B0002860FFF74FFD0646286810F0020F08D090
:1021C000FFF748FD801B02285ED8286810F0020F38
:1021D000F6D1207810F0080F33D0DFF83092606924
:1021E0000028D9F8000016D040F00100C9F800001E
:1021F000FFF730FD0646D9F8000010F0020F20D19D
:10220000FFF728FD801B02283ED8D9F8000010F007
:10221000020FF5D015E020F00100C9F80000FFF72B
:1022200019FD0646D9F8000010F0020F09D0FFF79B
:1022300011FD801B022827D8D9F8000010F0020FEA
:10224000F5D1207810F0040F63D07148016841F097
:102250008051016000686F4E00F08050009030683F
:1022600040F480703060FFF7F5FC8146306810F470
:10227000807F0BD1FFF7EEFCA0EB0900642862D849
:10228000306810F4807F00E05DE0F3D0A068624E1B
:10229000012804BF306840F0010009D008B10528CA
:1022A00013D0306820F001003060306820F0040066
:1022B0003060A06841F2883AD0B1FFF7CBFC81468C
:1022C000306810F0020F08D023E0306840F00400BE
:1022D0003060306840F00100EAE7FFF7BBFCA0EB9C
:1022E000090050452FD8306810F0020FF5D010E0EB
:1022F000FFF7B0FC8146306810F0020F09D0FFF7FD
:10230000A9FCA0EB090050451DD8306810F0020F61
:10231000F5D1A069E8B3D8F8001001F00C01082944
:102320006ED00228286820F0807028600ED0FFF759
:1023300091FC0446286810F0007F5ED0FFF78AFC0D
:10234000001B022855D90320BDE8F88FFFF782FC57
:102350000646286810F0007F08D0FFF77BFC801B42
:102360000228F0D8286810F0007FF6D1D4E90701E0
:1023700047F6C0724FF0FF3392FAA2F20843616A47
:10238000B2FA82F29140A26A03EB52024FF4403358
:1023900000E032E093FAA3F3B3FA83F39A401143D7
:1023A0004FF070620843E16A92FAA2F2B2FA82F246
:1023B00091404FF0E0420843216B92FAA2F2B2FA48
:1023C00082F2914008433860286840F080702860AD
:1023D000FFF740FC0446286810F0007F0DD1FFF79E
:1023E00039FC001B0228AED8286810F0007FF6D018
:1023F00003E0286810F0007FA0D10020BDE8F88F2E
:102400000120BDE8F88F000008380240743802400F
:10241000403802400070004070380240002804BF7D
:102420000120704770B5044690F82C000D4628B97D
:10243000002084F82D00204600F012F8022084F8D5
:102440002C002068211DFFF725FAD4E90002294657
:10245000FFF77EFA012084F82C00002070BD0000F8
:1024600030484DF804ED87B0016841F0010101608A
:10247000006800F0010005902B48016841F004015C
:102480000160016801F004010591016841F0080153
:102490000160016801F008010591016841F0100137
:1024A0000160016801F010010591016841F020010F
:1024B0000160016801F020010591016841F04001CF
:1024C00001600068694600F0400005900D20009012
:1024D0000220019001200290032003900C20049020
:1024E0001248FFF791FA4CF20370009010486946C9
:1024F000FFF78AFA4FF6837000900E486946FFF79F
:1025000083FA4FF63F0000900B486946FFF77CFACC
:1025100048F23710009009486946FFF775FA07B08E
:102520005DF804FB383802403038024000080240B1
:10253000000C02400010024000140240001802404B
:1025400010B5044690F82C00022808BF10BD0220E8
:1025500084F82C002068FFF7CCF9012084F82C00C7
:10256000002010BD70B5044690F82C000D460228DE
:1025700008BF70BD022084F82C002068FFF7BFF967
:10258000286802280CBF0520012084F82C000020B8
:1025900070BD4FF0E021042808690CBF40F0040032
:1025A00020F0040008617047401EB0F1807F24BF16
:1025B000012070474FF0E0214861F020044A82F882
:1025C000140D00208861072008610020704700007A
:1025D0000FE000E0704770472DE9F0410168A1F17C
:1025E0008040B0F5803018BFBDE8F0814FF48071B5
:1025F0002D48FFF721FB2D4E00252D4C4FF6F5778A
:1026000070B13068016A394001623068016A41F096
:102610000201016230684562207840F010003FE01E
:102620002248002100F05AFA80B2608031680A6ABC
:102630003A400A6231680A6A0A62217811F0100F82
:102640002BD011F0800F1ED0A0F22D12B2F5F97F21
:102650009CBF6068400008D9A0F27952B2F5C77FEC
:1026600005D86068400040F00100606015E0A0F609
:102670009900B0F5C77F10D86078401C607001F0F9
:10268000F000207009E0A0F580506938B0F5F97FBE
:1026900003D841F0800020706570207820F0100091
:1026A0002070BDE8F081000000000240B00302206D
:1026B000380002202DE9F041044690F838000D461C
:1026C000012804BF0220BDE8F0810126022084F821
:1026D000386084F83900002A37D0042A4FF4704754
:1026E00043D02068082A6CD0D5E90032E968D0F8D8
:1026F00020C02CF4805CC0F820C0D0F81C80D0F83A
:1027000020C007EA013128F4407848EA022222F486
:1027100070421143C1612CF420424FF4204C0CEA6A
:1027200003331A4302622068C16921F44061C16128
:102730002068C169AA6841EA0221C16184F8396050
:10274000002084F83800BDE8F081EB682068D5E906
:10275000001201F00EFD2068816921F00C018161F9
:1027600020688169AA68114329E02068D5E9003210
:10277000E968D0F820C02CF0100CC0F820C0D0F8C8
:102780001880D0F820C007EA013128F4407848EAE0
:10279000022222F47042114381612CF0A0024FF01A
:1027A000A00C0CEA03131A4302622068816921F429
:1027B0004061816120688169AA6841EA02218161E2
:1027C000BCE7D5E900C1EB68026A22F480720262BC
:1027D000C769026A27F003073943F02721F0F001A7
:1027E00007EA03131943C1614FF4206322F4206206
:1027F00003EA0C231A4302622068C16921F00C012C
:10280000C1612068C169AA68114396E7002804BF26
:102810000120704710B5044690F8390028B900200F
:1028200084F83800204600F00DF8022084F83900C2
:102830002068211D01F02EFC012084F839000020C1
:1028400010BD00001A484DF804ED87B0016841F052
:1028500001010160006800F0010005901548016861
:1028600041F0010101600068032100F001000590C2
:102870004FF4807000900220019001200490CDE977
:1028800002010D486946FFF7BFF8032201211B2012
:10289000FFF722FA1B20FFF712FA0222012119206A
:1028A000FFF71AFA1920FFF70AFA07B05DF804FBE0
:1028B00044380240303802400000024010B502683F
:1028C0000029044604BFD06840F0020011D004295A
:1028D00004BFD06840F004000BD0082904BFD068C2
:1028E00040F0080005D00C2904BFD06840F010006B
:1028F00000D1D0600122206801F02EFC2068016820
:1029000041F001010160002010BD70B5044600686F
:1029100001694FF0000511F0020F1CBFC16811F0F2
:10292000020F13D06FF002010161012020762068B0
:10293000806910F0030F204602D0FFF74DFE04E03F
:1029400000F0A6F8204600F0A4F82576206801697A
:1029500011F0040F1CBFC16811F0040F13D06FF009
:1029600004010161022020762068806910F4407F14
:10297000204602D0FFF730FE04E000F089F8204640
:1029800000F087F825762068016911F0080F1CBF58
:10299000C16811F0080F13D06FF008010161042025
:1029A00020762068C06910F0030F204602D0FFF7A0
:1029B00013FE04E000F06CF8204600F06AF825767B
:1029C0002068016911F0100F1CBFC16811F0100FD1
:1029D00013D06FF010010161082020762068C069D3
:1029E00010F4407F204602D0FFF7F6FD04E000F02F
:1029F0004FF8204600F04DF825762068016911F067
:102A0000010F1CBFC16811F0010F05D06FF001016B
:102A10000161204600F03EF8206801696FF08005F2
:102A200011F0800F1CBFC16811F0800F03D0056149
:102A30002046FFF7CFFD2068016911F4807F1CBF9D
:102A4000C16811F0800F03D005612046FFF7C2FD79
:102A50002068016911F0400F1CBFC16811F0400FE0
:102A600005D06FF040010161204600F059F8206860
:102A7000016911F0200F1ABFC16811F0200F70BD5D
:102A80006FF0200101612046BDE87040FFF7A3BD53
:102A9000704770470068A0F18041B1F5803118BFE0
:102AA00070470D49087810F0800F08BF704720F07C
:102AB0001000087010F00F0F04BF40F040000870C5
:102AC000C0B200F00F020E2A32BF401C20F080007E
:102AD00000F0F000087070473800022090F838309D
:102AE0000022012B04BF022070470123002980F837
:102AF000383004BF01684A6B0DD0042904BF016857
:102B00008A6B08D0082904BF0168CA6B03D00C295E
:102B100004BF01680A6C002180F838101046704725
:102B20007047704770B501680446C8690A688B68C9
:102B300010F00F0F4FF0200551D040F2011C13EAA6
:102B40000C0F7DD010F0010F18BF12F4807F07D05A
:102B50004FF0010CC1F820C0E16E41F00101E166C7
:102B600010F0020F18BF13F0010F08D0D4F800C006
:102B70000221CCF82010E16E41F00401E16610F072
:102B8000040F18BF13F0010F08D0D4F800C00421BF
:102B9000CCF82010E16E41F00201E16610F0080F60
:102BA0000CD002F0200103F00103194306D0236882
:102BB00008211962E16E41F00801E166E16E002929
:102BC00008BF70BD10F0200F1EBF12F0200F20466E
:102BD00001F0BCFBE06E10F0080F10D10AE010F01D
:102BE000200F18BF12F0200F39D02046BDE87040EA
:102BF00001F0ACBB2068806810F0400F29D020683D
:102C0000016821F4907101602068816821F0010160
:102C1000816084F86A502068816811F0400F14D0F8
:102C2000816821F040018160606E70B12D490165BD
:102C3000606EFEF7D6FE002808BF70BD606E00E033
:102C40000DE0016DBDE8704008472046FFF769FFC1
:102C500070BD2046FFF765FF0020E06670BD10F0F4
:102C6000800F18BF12F0800F2CD094F86900212833
:102C700018BF70BDB4F8520090B1A068B0F5805F85
:102C800004BF20690028E06C14D0411CE164216875
:102C900000788862B4F85200401EA4F8520070BD5B
:102CA000086820F0800008602068016841F0400159
:102CB000016070BD0088C0F308008862E06C801C71
:102CC000E064E7E710F0400F14BF12F0400F70BD52
:102CD00020460A6822F040020A6084F8695000F039
:102CE000AAF970BD39430008002804BF01207047CD
:102CF00010B5044690F8690028B9002084F86800EF
:102D0000204600F029F8242084F869002068016832
:102D100021F001010160204601F056FB012808BFA7
:102D200010BD606A00281CBF204601F068FA2068C8
:102D3000416821F4904141602068816821F02A01B6
:102D400081602068016841F0010101602046BDE812
:102D5000104001F0C1BA000070B586B03F4A0021B2
:102D60004FF0030C0223009107240191029103917B
:102D7000049101683A48A1F18045B5F5883530D015
:102D8000384DA1F18046B6F5884646D0A1F1804085
:102D9000B0F590401CBF06B070BD286840F480209C
:102DA0002860286800F480200590106840F0020038
:102DB00010601068694600F0020005904FF4406012
:102DC000CDE900032848CDE903C4FEF71DFE00222B
:102DD00027201146FEF780FF2720FEF770FF06B080
:102DE00070BD22490D6845F010050D60096801F0BD
:102DF00010010591116841F001011160116801F0A5
:102E0000010105914FF4C061CDE90013CDE903C480
:102E10006946FEF7F9FD06B070BD296841F400313E
:102E20002960296801F400310591116841F0010120
:102E300011601168049401F0010105910C21CDE9A4
:102E400000130121CDE9021C6946FEF7DDFD0022D9
:102E500001212620FEF740FF2620BEE73038024041
:102E60000000024040380240000402404438024062
:102E700090F86A30202B49D1002912BF002A012086
:102E8000704790F86830012B40D0012380F86830FB
:102E90004165A0F85820A0F85A20FF228168B1F5BA
:102EA000805F05D07F2351B1B1F1805F0CD012E07B
:102EB0000169002908BF40F2FF1102D109E0016950
:102EC00009BBA0F85C2006E00169002918BF3F217A
:102ED00019D0A0F85C100021C166222280F86A2077
:102EE00080F8681001680A6842F480720A6001681C
:102EF0008A6842F001028A600068016841F020019E
:102F0000016000207047A0F85C30E4E702207047C1
:102F10000068A0F18041B1F5884118BF7047144A9C
:102F2000508810F4004F1ED111464FF0000310F4EA
:102F3000804F097806D00A2904BF40F40040508031
:102F400011D006E00D2908BF40F480400AD0C72800
:102F500001D9538007E0DFF81CC0C0F30D03401C0B
:102F60000CF803105080012201490348FFF780BF8D
:102F70002000022040000220780102202DE9F843C1
:102F8000044690F869001E4691460D4620284FD110
:102F9000002D12BFB9F1000F0120BDE8F88394F8AD
:102FA0006800012844D0012084F868000027E76603
:102FB000212084F86900FEF74DFEA4F85090804669
:102FC000A4F852900022B4F8520080214346401EDB
:102FD000A4F852002046009601F04AFBB0B9A06860
:102FE000B0F5805F04BF2069002812D0216815F871
:102FF000010B8862B4F852000028E3D10022434656
:1030000040212046009601F033FB48B10320BDE883
:10301000F883216835F8020BC0F308008862E9E7FD
:10302000202084F86900002084F86870BDE8F883E7
:103030000220BDE8F8837047FEE700001B4870B52A
:1030400086B0016841F001010160016801F00101F1
:103050000591016841F004010160016801F004017B
:103060000591016841F08001016000680325002698
:10307000694600F08000059002200124CDE9020598
:103080000B48CDE90046FEF7BFFC60036946CDE979
:1030900000060848CDE90245FEF7B6FC0C2000907A
:1030A00005486946FEF7B0FC06B070BD30380240F6
:1030B0000000024000080240001C02402DE9F84FC9
:1030C000934B1B681BB1BDE8F84F00F0F9BBDFF86C
:1030D00044A20C0ADFF84092CBB2D446070ABAF8F1
:1030E000045009F10206BCF80C1000F0FF08BCF80F
:1030F0000AC0A5F5134BBBF1410B1CBFA5F5A04BB6
:10310000BBF5447B09D0A5F5A04BBBF5A26B3DD028
:10311000A5F5C857633F7CD0F2E0ADF800C0BDF81C
:103120000000ADF80000BDF80000A9F80000ADF8FF
:103130000070BDF80000ADF80000BDF80000308060
:10314000ADF80080BDF80000ADF80000BDF800004B
:103150003080ADF80010BDF80000ADF80000BDF8FB
:103160000000A9F80000ADF80040BDF80000ADF87F
:103170000000BDF800003080ADF80030BDF8000060
:10318000ADF80000BDF800003080B9E0ADF800C037
:10319000BDF80000ADF80000BDF80000A9F800007F
:1031A000ADF80070BDF80000ADF80000BDF80000FB
:1031B00030800CF10100ADF80000BDF80000ADF862
:1031C0000000BDF80000A9F80000ADF80080BDF8CF
:1031D0000000ADF80000BDF800003080ADF8001030
:1031E000BDF80000ADF80000BDF80000A9F800002F
:1031F000ADF80040BDF80000ADF80000BDF80000DB
:103200003080481CADF80000BDF80000ADF80000AB
:1032100000E00DE0BDF80000A9F80000ADF80030B6
:10322000BDF80000ADF80000BDF80000308067E098
:103230009AF8065025B9BAF80050281A401E80B2F4
:10324000ADF800C0BDF800C0ADF800C0BDF800C0CA
:10325000A9F800C04FEA102CADF800C0BDF800502E
:10326000ADF80050BDF800503580C0B2ADF8000098
:10327000BDF80050ADF80050BDF800503580ADF8F5
:1032800000C0BDF800C0ADF800C0BDF800C0A6F891
:1032900000C0ADF80000BDF80000ADF80000BDF8BA
:1032A00000003080ADF80010BDF80000ADF800005F
:1032B000BDF80000A9F80000ADF80040BDF800001E
:1032C000ADF80000BDF800003080ADF80030BDF86A
:1032D0000000ADF80000BDF800003080ADF80040FF
:1032E000BDF80000ADF80000BDF800003080ADF87A
:1032F0000030BDF80000ADF80000BDF800003080DF
:10330000BAF80800A9F800003280BDE8F88F000084
:1033100090030220D8020220FEFF07602DE9F84F3B
:103320001F46194B83460C460A981B6833B13B462F
:103330000090584600F0E6FABDE8F88FA2EB0B01CA
:10334000491C8DB2BC4288BFBDE8F88FDFF83C90C5
:1033500086B2DFF83CA00AF102082146584600F088
:1033600019F8B9F80800AAF800000020002D05D9C6
:10337000A8F80060401C80B28542F9D8601C84B275
:10338000BC42EAD9BDE8F88F90030220D80202209F
:10339000FEFF07602DE9F807DFF8AC820B0ACCB21C
:1033A000DFF8A8924146050AB8F8046000F0FF0C67
:1033B0008A8909F102074989A6F5134ABAF1410A37
:1033C0001CBFA6F5A04ABAF5447A5CD0A6F5C85A47
:1033D000BAF1630A7ED0A6F5AA4010381CBFBDE83A
:1033E000F8077047ADF80010BDF80000ADF8000018
:1033F000BDF80000A9F80000ADF80050BDF80000CD
:10340000ADF80000BDF800003880481CADF80000A1
:10341000BDF80000ADF80000BDF80000A9F80000FC
:10342000ADF800C0BDF80000ADF80000BDF8000028
:103430003880ADF80020BDF80000ADF80000BDF800
:103440000000A9F80000ADF80030BDF80000ADF8AC
:103450000000BDF800003880501CADF80000BDF839
:103460000000ADF80000BDF80000A9F80000ADF8BC
:103470000040BDF80000ADF80000BDF80000388045
:10348000BDE8F8077047ADF80010BDF80000ADF8D2
:103490000000BDF80000A9F80000ADF80050BDF82C
:1034A0000000ADF80000BDF800003880ADF800C0A5
:1034B000BDF80000ADF80000BDF800003880ADF8A0
:1034C0000020BDF80000ADF80000BDF80000A9F82C
:1034D000000000E014E0ADF80030BDF80000ADF8E9
:1034E0000000BDF800003880ADF80040BDF80000D5
:1034F000ADF80000BDF800003880BDE8F80770475F
:10350000514E98F806A0BAF1000F368866D0ADF893
:103510000010BDF80000ADF80000BDF80000A9F8EB
:103520000000ADF80050BDF80000ADF80000BDF897
:1035300000003880ADF800C0BDF80000ADF8000014
:10354000BDF800003880701E010AADF80010BDF80B
:103550000010ADF80010BDF800103980C0B2ADF811
:103560000000BDF80000ADF80000BDF80000388094
:10357000ADF80020BDF80000ADF80000BDF8000077
:10358000A9F80000ADF80030BDF80000ADF800006B
:10359000BDF800003880ADF80040BDF80000ADF87F
:1035A0000000BDF800003880B8F80200401E010A93
:1035B000ADF80010BDF80010ADF80010BDF8001017
:1035C0003980C0B2ADF80000BDF80000ADF80000D1
:1035D000BDF800003880BDE8F8077047301AADF834
:1035E0000010401E80B2BDF80010ADF80010BDF80C
:1035F0000010A9F800100021ADF80010BDF800C0BF
:10360000ADF800C0BDF800C0A7F800C0ADF80010CC
:10361000BDF80010ADF80010BDF800103980010AA7
:10362000ADF80010BDF80010ADF80010BDF80010A6
:103630003980C0B2ADF80000BDF80000ADF8000060
:10364000BDF80000388093E7D8020220FEFF076033
:103650002DE9F04F85B01E460D46824613F0070057
:103660008946DDF838B018BF012000EBD6004FF0D6
:103670000007710810FB01F010F0FF010091A2F1AA
:103680002000C0B204BF05B0BDE8F08F00EB4001E0
:10369000334A02EB8101049102F2744101EB001103
:1036A000039100EBC00102F6642202EB810102915A
:1036B00002F65C5101EBC01001900C2E08BF04987B
:1036C0000DD0102E08BF039809D0182E08BF0298FD
:1036D00005D0202E0EBF019805B0BDE8F08FC45D67
:1036E0004FF0000814F0800F06D01E4829460268EB
:1036F0005046FFF7E3FC08E0BBF1000F05D1194885
:10370000294642685046FFF7D9FC6006040E681C43
:1037100085B215484088A8429CBF05B0BDE8F08F2F
:10372000A5EB0900B0420CD10AF101004D461FFA89
:1037300080FA0D48008850459CBF05B0BDE8F08F69
:1037400006E008F1010000F0FF08B8F1080FC9D346
:10375000781CC7B20098B842AFD805B0BDE8F08F6A
:103760000250000828000220D80202202DE9FF4F55
:103770004FF0000792461D00804681B03C4604BFD2
:1037800005B0BDE8F08FA5F101094FF0000B0E98D0
:103790004608281B401E0A230121C2B2501EC0B297
:1037A00004D301FB03F1401EC0B2FAD2BAFBF1F020
:1037B0001649A1FB0021C908494201EB810100EB38
:1037C00041002FB94C4503DA002818BF012711D05A
:1037D00030300E9BC2B2029906FB0480CDF800B0D7
:1037E00080B2FFF735FF601CC4B2AC42D1D305B044
:1037F000BDE8F08F06FB04800E9B202280B2029968
:10380000CDF800B0FFF724FFEDE70000CDCCCCCC25
:103810002DE9F84F00F0FF08044610190E46DDE9C7
:103820000A751FFA80FA98191FFA80F9287820384B
:103830005E2894BF4FF0000BBDE8F88FA24502D878
:10384000F019444686B2B14598BFBDE8F88FCDF86F
:1038500000B03B462A7831462046FFF7F9FE04EBDC
:10386000570084B215F8010F20385E28E6D9BDE86C
:10387000F88F0000104810B586B0016841F00201D1
:103880000160006801210D4C00F00200059003204A
:10389000CDE90001CDE9021069462046FEF7B4F8F3
:1038A000012220461146FEF7D0F9012220460221CE
:1038B000FEF7CBF906B010BD3038024000040240DC
:1038C000F0B40E4E94B20E4F3246757DD2F81CC045
:1038D0001368002D127D57F822201CBF03FB010046
:1038E0000CFB00F006D17568281A401E03FB00107F
:1038F00000FB0CF01452F0BC704700009003022053
:10390000300002202DE9F003284F4FF0000C069EF6
:103910007C7D002C18BF044606D17D680C46A91A90
:103920001A46281A431E491E3868121B97F814803D
:10393000DFF87C90851A00FB0140FF696D1E59F885
:103940002880ADB207FB00841A48076847F40007D7
:10395000076019484FF44037076002274763056442
:10396000056825F001050560C463591AFB03491C6D
:1039700003EB0242114341648663016841F0010197
:103980000160416811F0020F08D10CF1010CBCF587
:10399000001F03D2416811F0020FF6D0816841F098
:1039A00002018160BDE8F00370470000900302202F
:1039B000300002203038024000B0024030B587B0FD
:1039C000184800240094019402940394049401681C
:1039D00041F080010160016801F0800105910168FA
:1039E00041F001010160016801F0010105910168E8
:1039F00041F002010160006800220B4D032100F03C
:103A0000020005902846FEF720F9032100910121CC
:103A10002846CDE9011469460394FDF7F5FF07B088
:103A200030BD000030380240000402402DE9F0476C
:103A300082464C4814460D4696B0B0E8CE138DE849
:103A4000CE1390E80F1008AE86E80F100A225046F9
:103A500010A901F079F910A8FCF7BBFC012805D0EA
:103A600010A8FCF7B6FC022805D008E03EA1684685
:103A7000FCF7CEFC03E03DA16846FCF7C9FC10A9A9
:103A80006846FCF7C5FC0A22284613A901F05CF938
:103A900013A8FCF79EFC032805D013A8FCF799FC9B
:103AA000042805D008E032A16846FCF7B1FC03E029
:103AB00030A16846FCF7ACFC13A96846FCF7A8FCEB
:103AC0000A2220460DA901F03FF90DA8FCF781FC60
:103AD00002280AD00DA8FCF77CFC03280AD00DA808
:103AE000FCF777FC04280AD00DE023A16846FCF718
:103AF0008FFC08E021A16846FCF78AFC03E020A1C6
:103B00006846FCF785FC0DA96846FCF781FC1DA101
:103B10006846FCF77DFC6E463046FCF75AFC05040F
:103B20004FF000042D0C18BF174F0FD01648311955
:103B300001224FF47A73FFF721FA3868C16911F056
:103B4000800FFBD0601C84B2A542EFD80FA069465D
:103B5000FCF7D6FB0E480421FEF773F816B0BDE85B
:103B6000F0870000D04F0008303000003000000027
:103B7000503000005000000054303000543000003D
:103B800054000000210D0A00780102202573000076
:103B9000000002407047704770B5914D012202232A
:103BA0004FF0030C284604246978C06801290CD022
:103BB000072935D004295DD0032971D0022970D09E
:103BC00005296FD006296ED0EBE0012806D0022827
:103BD00010D0032815D0042819D0E2E0012040F6C7
:103BE0004C114FF47A72EB60FFF720FF7DA0FCF7D9
:103BF00087FBD6E04FF47A7240F23E31C5F80CC034
:103C0000DFE04FF47A7240F23E31EC6073E0042062
:103C100040F62E11EA604FF47A72FFF707FFC0E01A
:103C200001280CD0022808BFC5F80CC050D00328CA
:103C300008BFEC604CD0042808BFEA60B1E0012066
:103C400040F2DC514FF47A72EB60FFF7EFFE022096
:103C500040F2DC514FF47A72FFF7E8FE032040F2A5
:103C6000DC514FF47A72FFF7E1FE4FF47A7240F2C2
:103C7000DC5147E0012806D002280AD0032813D0DF
:103C8000042817D08DE04FF4487141F28832EB6080
:103C90006AE041F2883240F62E11C5F80CC090E07F
:103CA0000EE031E052E074E041F2883240F62E112D
:103CB000EC6020E04FF44871EA6041F2883221E084
:103CC000012806D002280AD003280FD0042814D0D7
:103CD00067E04FF4617141F28832EB6044E041F2F9
:103CE000883240F28E31C5F80CC06AE041F2883269
:103CF00040F26631EC6003208FE740F25231EA6017
:103D000041F28832042088E7012806D002280AD030
:103D100003280FD0042813D043E04FF4FA6141F296
:103D20008832EB6020E041F2883240F29E71C5F8A3
:103D30000CC046E041F2883240F2BC71EC60DAE738
:103D400044F6B071EA6041F28832DBE7012806D020
:103D500002280BD0032810D0042814D021E041F20F
:103D6000883240F2A461EB60012056E741F28832CC
:103D700040F2A461C5F80CC023E041F2883240F261
:103D80001451EC60B7E740F21451EA6041F2883216
:103D9000B8E7012808D002280DD0032813D0042842
:103DA00017D00020686070BD012041F2883240F2D7
:103DB0001451EB6031E741F2883240F21451C5F8FA
:103DC0000CC0022029E741F2883240F2A461EC6085
:103DD00091E740F2A461EA6041F2883292E7000084
:103DE000000002203131342C3531340D0A0000003E
:103DF00030B5134C0025114885B02060D720C4E9A8
:103E0000010542F21070C4E903052046FEF7FEFCEE
:103E1000012069460022CDE900500320CDE902507F
:103E20002046FEF747FC00212046FEF747FD2068AC
:103E3000C16841F00101C16005B030BD0000014022
:103E4000B00302204DF8044D134C0020237813F0EA
:103E5000400F04BF5DF8044B704761686FEA114C76
:103E60000A0E0CF0FF0C944508BF002A0CD1C1F3D8
:103E70000722C943C9B2914206D110001EBF13F0F8
:103E8000800F5DF8044B704723F040012170002142
:103E900061705DF8044B704738000220264800220C
:103EA0004DF804ED234987B01023C0E90012012129
:103EB00081600821C0E90313402343614FF4C073BC
:103EC000C0E906320A0202624A0242628A02826241
:103ED0000220CDE9000106210291CDE903100590F1
:103EE000694606901448FEF799FA00230122184605
:103EF000114600F023F84FF4FA7000F025FD00237E
:103F000001221846022100F019F800230822184661
:103F1000032100F013F80122042100204FF40C7358
:103F200000F00CF8044840F23731FEF709FB07B007
:103F30005DF804FB400100A0580202204DF804ED9A
:103F400000284FF0000C85B008BF4FF0100C03D0D4
:103F5000012808BF4FF0080CCDE9022306484FF4B2
:103F60008052CDE9001C6946FEF7FCFA002818BF14
:103F7000012005B05DF804FB5802022070470000E4
:103F8000DFF894C010B594B0DCF8004044F08054E1
:103F9000CCF80040DCF800C00CF0805CCDF848C0E4
:103FA000DFF878C0DCF8004044F44044CCF800402E
:103FB000DCF800C002240CF4404CCDF848C04FF0AF
:103FC000010CCDF800C04FF4803CCDF804C04FF494
:103FD000800CCDE90810CDE90A23CDE9064C6846EE
:103FE000FEF73AF800B1FEE7FDF7BAFE00B1FEE7D2
:103FF0000F20CDE90D0400200F904FF4A050109039
:104000004FF48050119007210DA8FDF7E7FE00281E
:1040100004BF14B010BDFEE74038024000700040FD
:10402000FDF71EBE0F48016841F4700101600E48A3
:10403000016841F0010101600C4A00211160026831
:1040400022F4102222F080720260031D084A1A60D6
:10405000026822F480220260064801605806064980
:104060000860704788ED00E00038024008380240E0
:10407000103000240C38024008ED00E00148FEF743
:1040800044BC0000B00302200148FEF73EBC000023
:10409000B0030220F0B402682A4BDFF8ACC02B4D0D
:1040A00098422B4E2B4C18BFB0F1804F07D0604583
:1040B00018BFA84203D0B04218BFA04203D14F6836
:1040C00022F070023A43984218BFB0F1804F25D0D9
:1040D000604518BFA84221D0B04218BFA0421DD0F1
:1040E000A0F1804CBCF5A03C1CBFA0F1804CBCF5FD
:1040F000A23C13D0A0F1804CBCF5A43C1CBFA0F1A5
:10410000804CBCF5C05C09D0A0F1804CBCF5E05CF3
:104110001CBFA0F1804CBCF5005C05D1D1F80CC0EF
:1041200022F440724CEA020202608A68C2620A68A3
:104130008262984212BFA042096901630121416174
:10414000F0BC70470000014000040040000800403F
:10415000000C0040000401400123D0F820C08B4037
:104160002CEA03030362036A02FA01F119430162B4
:10417000704730B4D0F820C02CF0010CC0F820C03B
:10418000D0F818C0046AA0F18045B5F5803518BF95
:10419000B0F1804F1FD0A0F18045B5F580651CBF00
:1041A000A0F18045B5F5006515D0A0F18045B5F5C5
:1041B00040651CBFA0F18045B5F582350BD0A0F15C
:1041C0008045B5F5A0351EBFA0F18045B5F5C055B9
:1041D0004CF0010203D12CF0030C4CEA02024FF028
:1041E000F00C22F0F0020CEA03131A43826124F06F
:1041F0000A0301F00A011943016230BC704790F8CC
:10420000241011F0010F06D001684A68836A22F475
:1042100000321A434A6090F8241011F0020F06D0C1
:1042200001684A68C36A22F480321A434A6090F8EF
:10423000241011F0040F06D001684A68036B22F4C1
:1042400080221A434A6090F8241011F0080F06D01B
:1042500001684A68436B22F400421A434A6090F8AE
:10426000241011F0100F06D001688A68836B22F4C5
:1042700080521A438A6090F8241011F0200F06D063
:1042800001688A68C36B22F400521A438A6090F86E
:10429000241011F0400F11D001684A68036C22F419
:1042A00080121A434A60016CB1F5801F06D1016883
:1042B0004A68436C22F4C0021A434A6090F8241002
:1042C00011F0800F08BF704701684A68806C22F4C3
:1042D0000022104348607047F8B500260446C666C1
:1042E000FDF7B8FC0746206800686FF07E4510F0C7
:1042F000080F08D000223B464FF4001120460095DD
:1043000000F0B6F968B92068006810F0040F0AD010
:1043100000223B464FF480012046009500F0A8F9AA
:1043200008B10320F8BD202084F8690084F86A00F1
:10433000002084F86860F8BD10B5806B0021A0F8FB
:104340005A10A0F85210FEF7ECFB10BD10B5B0F8F3
:104350005C2090F86A300168222B05D0886940F013
:1043600008008861022010BD8368B3F5805F04BF38
:104370000369002B20D0496A0A40416D4B1C4365FC
:104380000A70B0F85A10491E0904090CA0F85A1016
:104390001CBF002010BD01680A6822F490720A60F8
:1043A00001688A6822F001028A60202180F86A1080
:1043B000FEF7AEFD002010BD436D496A1140198023
:1043C000416D891C4165DCE770B5044680681021A9
:1043D000002223691546D4F81CC01843636943EAD8
:1043E0000C0303432068D0F800C09D4E0CEA060C75
:1043F0004CEA0303036020684368D4F80CC023F43C
:10440000405343EA0C034360236AA06903432068D6
:10441000D0F808C02CF4306C4CEA030383602068A9
:10442000904BA0F1804CBCF5883C23D0A0F1804C8F
:10443000BCF5884C29D0A0F1804CBCF5904C2FD015
:10444000A0F1804CBCF5984C35D0A0F1804CBCF567
:10445000A04C3BD0A0F1804CBCF58A3C44D0A0F1EC
:10446000804CBCF5F04C4FD0A0F1804CBCF5F84C22
:1044700058D06CE01B6813F0030343D0012B63D0CA
:10448000022B5FD0032B61D061E01B6813F00C039B
:1044900056D0042B58D0082B54D00C2B56D056E0B5
:1044A0001B6813F030034BD0102B4DD0202B49D07C
:1044B000302B4BD04BE01B6813F0C00340D0402B97
:1044C00042D0802B3ED0C02B40D040E01B6813F47C
:1044D000407335D0B3F5807F36D0B3F5007F31D04F
:1044E000B3F5407F32D032E01B6813F4406309D04B
:1044F000B3F5806F28D0B3F5006F23D0B3F5406FCC
:1045000024D024E0012122E01B6813F4405317D08B
:10451000B3F5805F18D0B3F5005F13D0B3F5405FFB
:1045200014D014E01B6813F4404309D0B3F5804F56
:104530000AD0B3F5004F05D0B3F5404F06D006E0E2
:10454000002104E0022102E0042100E00821E369E7
:10455000B3F5004F08D009297FD2DFE801F04652B9
:104560005E7E677E7E7E7400092935D2DFE801F029
:10457000050F1934213434342B00FDF7F1FC4100D0
:10458000606801EB5001B1FBF0F082B225E0FDF76D
:10459000FFFC4100606801EB5001B1FBF0F082B21A
:1045A0001BE06068304901EB5001B1FBF0F082B2D2
:1045B00013E0FDF705FD4100606801EB5001B1FB20
:1045C000F0F082B209E060684FF4803101EB5001F5
:1045D000B1FBF0F082B200E0012522F00F00C2F33F
:1045E000420108432168C86038E0FDF7B9FC014684
:1045F000606801EB5001B1FBF0F0216880B2C86047
:104600002CE0FDF7C5FC0146606801EB5001B1FBF1
:10461000F0F0216880B2C86020E06168134A02EBC4
:104620005102B2FBF1F189B2C16017E0FDF7C8FC9D
:104630000146606801EB5001B1FBF0F0216880B2E7
:10464000C8600BE009E061684FF4004202EB5102E0
:10465000B2FBF1F189B2C16000E00125284670BDCE
:10466000F369FFEF903802400048E8010024F400AD
:104670002DE9F041044600681E461746069D88460F
:10468000C06931EA00000CBF01200020B84226D1E9
:10469000B5F1FF3F1AD025B1FDF7DCFA801BA84227
:1046A00014D32068016821F4D0710160206881680A
:1046B00021F001018160202084F8690084F86A00FB
:1046C000002084F868000320BDE8F0812068C069FC
:1046D00038EA00000CBF01200020B842D8D00020EA
:1046E000BDE8F0810148FEF71DBA00000801022074
:1046F0000148FEF717BA0000780102200148FEF7D2
:1047000011BA0000E8010220FEE7000000000000EE
:1047100030B583B00446FBF78BFE9FED090B0546D1
:104720008DED000B002221466846FBF7D3FE28469C
:10473000FBF783FE9DED000B03B030BD00000000D1
:1047400000000000000000009FED030B20EE000BB6
:104750007047000000000000000000000000007032
:104760009FED030B20EE000B7047000000000000DF
:10477000000000000000001010B504462DED048B71
:1047800082B06A4691ED008B51EC180B00F004F9F1
:1047900000989FED1D9B7E300090002822DCB4EE37
:1047A000498BF1EE10FA1DD0002140F608004FF0C1
:1047B0000000B7EEC88B40F60801014040F6080043
:1047C0004FF000009FED120AB4EE408AF1EE10FAAD
:1047D00004BF0220FBF731FE84ED008A02B0BDEC7D
:1047E000048B10BDFF28B8BFB7EEC88BF4DB0220E6
:1047F000FBF723FEB4EEC98BF1EE10FAACBF9FEDD0
:10480000058A9FED058AE7E7000000000000000030
:10481000000000000000807F000080FF000000001A
:1048200030B504462DED048B85B040F2FF7590ED58
:10483000008B0A4618EE900A8DED008B35EA105079
:104840001EBF9FED239BB4EE498BF1EE10FA23D0EF
:1048500051EC180B00F063FB41EC180B18EE900ABA
:104860008DED008B35EA10501CD0B4EE498BF1EE83
:1048700010FA11D10220FBF7E0FDFFF771FF10EEF7
:10488000901A18EE900A8DED000B8DED028B61F3FE
:104890001E0001909DED008B84ED008B05B0BDECFA
:1048A000048B30BD0220FBF7C8FDFFF74DFF10EE73
:1048B000901A18EE900A8DED000B8DED028B61F3CE
:1048C0001E0001909DED008BE6E700000000000057
:1048D000000000000000000030380A2801D201204A
:1048E000704700207047704710B504460420FDF75C
:1048F00050FE0148046010BD1C000220F0B40024EA
:1049000000289CBFF0BC70470E494FF47A724FF0FC
:10491000E026096801FB02F5D6F814C00021B3694E
:10492000B2699A42FCD026BFACEB02073B449B1A0B
:1049300019441346A942F3D3641C8442ECD3F0BC5F
:10494000704700001C00022030B44FF0E02400212A
:104950006369094A126800FB02FCA269A0699042DF
:10496000FCD026BF1D1A2A44121A11440246614582
:10497000F4D330BC704700001C00022004490A68D0
:1049800012F0400FFBD0034AC1B211607047000023
:104990001C4400402844004082B04FF0000CCDE998
:1049A0000001009BC2F800C0DFF864C021F00040A5
:1049B000604529DA034327D0B0F5801FA8BF1368EC
:1049C0000EDA9DED000B9FED141B6FF0350320EE0A
:1049D000010B10EE901A8DED000B136021F00040DA
:1049E000DFF83CC06FF31E510CEB205018441060F0
:1049F00041F0FF5040F0005001909DED000B00BFD2
:104A000051EC100B02B070479DED000BF8E7000071
:104A10000000F07F00000000000000000000504394
:104A200002FCFFFF0024012582B0FCF7EDFEFDF73C
:104A30001FF90923022219214FF4D870FFF7A0FAB9
:104A4000D820FFF751FFFEF7B9FF4FF4E13000F037
:104A5000B1F9FEF70FFFFEF7F1FAFFF71FFAFFF7C4
:104A6000C7F988481F21DFF820A24FF00109DFF8BD
:104A70001CB24FF000080160FFF7E4F9060008BF20
:104A8000012500F0A280102702460323009782210F
:104A90005620FEF76BFE7E4803230097962102788E
:104AA0005620FEF763FE012D08BF0025622E50D070
:104AB00029DC302E08BF77A400F0748013DC102EA0
:104AC00008BF75A46ED007DC002E08BF73A469D0A0
:104AD000022E08BF73A465E0182E08BF73A461D02E
:104AE000222E4AD05EE0382E08BF71A45AD0422E42
:104AF00008BF70A456D0522E08BF6FA452D05A2EB1
:104B000008BF6FA44EE0A82E42D014DC902E08BF40
:104B10006CA447D007DC682E08BF6CA442D07A2E64
:104B200008BF6BA43EE0982E08BF6AA43AD0A22E1C
:104B300008BF69A436E0B02E08BF69A432D0C22EE7
:104B400010D0E02E08BF67A42CD0E22E08BF67A4C7
:104B500028E06AA00A2382211A46CDE90070AA2023
:104B600065A412E068A00A233C211A46CDE9007032
:104B7000AA2063A4FEF74CFE14E067A00A233C21A0
:104B80001A46CDE90070FA2061A4FEF741FE09E063
:104B900065A00A2300211A46CDE90070AA2060A46E
:104BA000FEF736FE00214FF6FF704FF4257340F2FA
:104BB000622200900846FEF7B1FB1023C822AA210A
:104BC0005620CDE90074FEF723FE594F7868401C4B
:104BD0007860FEF7E1FF1420FFF790FE554890F84B
:104BE0006A00202809D1BAF8000010F4004F09D15A
:104BF000514901224F48FEF73BF9BAF8000010F482
:104C0000004F2ED087F800900122C7F80880114687
:104C10009AF800604948AAF80080FDF716F848485D
:104C200000F80680FFF774FDB7EEC00B454910EEA3
:104C3000100A87ED040A8842A8BF02201FDA10EE8E
:104C4000100A584533BF10EE100A032078705845FB
:104C5000BFF412AF10EE100A8842B8BF87F8019077
:104C60000AE7B868401CB8601928C4BF07217970EA
:104C70006428C4BF87F8008005207FF7FDAE7870F8
:104C8000FAE6000028000220220002200000A0C056
:104C90003900022034000000370000004552524F16
:104CA00052000000504C4159000000003500000047
:104CB000380000003000000044454C4554450000D9
:104CC00039000000564F4C2B00000000310000005E
:104CD0003600000032000000504F574552000000DF
:104CE00033000000564F4C2D00000000414C494558
:104CF0004E54454B000000005550000075700000F8
:104D00005249474854000000726967687400000007
:104D10004C454654000000006C65667400000000BD
:104D2000444F574E00000000646F776E0000000093
:104D3000000002207801022020000220000402402E
:104D4000400002200000A040F0B4002484460A2A5B
:104D50000B46254618BF0D7027D1BCF1000F21D09E
:104D600006DA4FF02D00187001F10103CCF1000CB0
:104D70000F4E42F210709CFBF0F252EA040706D08C
:104D800002FB10CC02F1300403F8014B012486FB36
:104D900000208210A2EBE0700028ECDC1D700846B9
:104DA000F0BC7047302018704D701846F0BC70474A
:104DB000676666661E4870B500241C490C250160B4
:104DC0004FF41656C0E90164C460C0E9044584612B
:104DD000C46104624462FDF787FF1548FDF784FF54
:104DE000002818BFFCF755FD1249134801604FF425
:104DF000E131C0E90114C460C0E904458461C461C3
:104E000004624462FDF770FF0C4901220A48FEF774
:104E10002FF80C480A490160C0E90164C460C0E988
:104E200004458461C4610462446270BD00100140A5
:104E300008010220004400407801022020000220E6
:104E400000480040E801022010B500290AD0087887
:104E5000002807D005487844FBF748FE002801D019
:104E6000002010BD0248784410BD0000AA4900008F
:104E7000A249000010B500290AD00878002807D000
:104E800005487844FBF732FE002801D0002010BD11
:104E90000248784410BD00009A4900009249000081
:104EA00002494FF0000000F008B800BF0000F87F92
:104EB0004FF04070E1EE100A70470CF00F03092B21
:104EC00008BF082000F05F800A2B0BD0082B18BF0A
:104ED000704708BF1CF0400F0AD04FF000004FF0A1
:104EE000000170471CF0400F18BF4FF000407047A2
:104EF0001CF0100F08D020F0704300F07F4242EA0F
:104F0000D3014FEA4370704700F0604021F07F42C8
:104F100042EA000201F07F4040EA727070474FF0B1
:104F2000FF0C4CF4E06C1CEA11531CBF9CEA030C10
:104F30009445C2BFDA4201EB02517047002B0DD0FD
:104F4000BCF1000F0FD0002A01F00041A4BF41F0D6
:104F5000E04141F07F614FF00000704701F00041F7
:104F60004FF00000704750EA01334FF09B0C18BF20
:104F70004CF0806C7FF494AF7047FBF759BCFBF7A3
:104F80005BBEFBF7E9BF1CF4801F11D01CF4E02FBF
:104F900003D06FEACC31490070474FF04050EFF337
:104FA000008222F0704242EA000282F300887047D9
:104FB0004FF00000704700000000000000000102F8
:104FC00003040607080900000000010203040000B2
:104FD00023000000000000000000000000000000AE
:104FE00000000000000000000000000000000000C1
:104FF00000000000000000000000000000000000B1
:1050000000000000000000000000000000000000A0
:1050100000003F40000000000000000030004000A1
:1050200030004000000009000BC03D000BC03D00F7
:10503000090018C024407FE02240318000001800A1
:1050400024C01B000D803240018003801C4027409B
:105050001C800740004010006000000000000000BD
:1050600000000000000000001F80204040200000E1
:10507000402020401F8000000000090006001F8023
:10508000060009000000040004003F800400040042
:10509000000000100060000000000000000004009C
:1050A00004000400040004000000000000400000B0
:1050B000000000000000002001C006003800400091
:1050C00000001F802040204020401F800000000082
:1050D00010403FC000400000000018C021402240A6
:1050E00024401840000010802040244024401B80B1
:1050F000000002000D0011003FC0014000003C8094
:10510000244024402440238000001F802440244069
:105110003440038000003000200027C03800200009
:1051200000001B802440244024401B8000001C0001
:1051300022C0224022401F800000000000000840E2
:1051400000000000000000000000046000000000FB
:105150000000000004000A00110020804040090007
:1051600009000900090009000000000040402080FB
:1051700011000A0004001800200023402400180039
:1051800000001F802040274029401F4000000040B1
:1051900007C039000F0001C0004020403FC024403C
:1051A00024401B8000001F80204020402040308091
:1051B000000020403FC0204020401F8000002040D1
:1051C0003FC024402E4030C0000020403FC024405B
:1051D0002E00300000000F0010802040224033805D
:1051E000020020403FC0040004003FC02040204097
:1051F00020403FC0204020400000006020202020B0
:105200003FC02000200020403FC024400B0030C0A1
:10521000204020403FC020400040004000C03FC030
:105220003C0003C03C003FC0000020403FC00C4099
:1052300023003FC020001F802040204020401F80CE
:10524000000020403FC024402400180000001F80C0
:105250002140214020E01FA0000020403FC024400A
:10526000260019C0004018C024402440224031804C
:105270000000300020403FC02040300000002000EF
:105280003F80004000403F80200020003E0001C0E1
:10529000070038002000380007C03C0007C0380075
:1052A0000000204039C0060039C020400000200026
:1052B000384007C0384020000000304021C0264060
:1052C000384020C00000000000007FE04020402067
:1052D0000000000070000C0003800040000000008F
:1052E000402040207FE0000000000000200040003F
:1052F000200000000000001000100010001000103E
:10530000001000000000400000000000000000004D
:1053100002800540054003C0004020003FC004401B
:105320000440038000000000038004400440064065
:10533000000000000380044024403FC00040000003
:1053400003800540054003400000000004401FC0EA
:10535000244024402000000002E005500550065083
:10536000042020403FC00440040003C0004000006F
:10537000044027C00040000000000010001004108E
:1053800027E00000000020403FC00140070004C0AB
:105390000440204020403FC000400040000007C0C3
:1053A000040007C0040003C00000044007C004401C
:1053B000040003C000400000038004400440038058
:1053C0000000041007F004500440038000000000B7
:1053D00003800440045007F00010044007C002405E
:1053E000040004000000000006400540054004C021
:1053F0000000000004001F80044000400000040082
:1054000007800040044007C000400400070004C0BB
:10541000018006000400060001C0070001C006006C
:105420000000044006C0010006C004400000041053
:10543000071004E00180060004000000044005C0DD
:105440000640044000000000000004007BE0402013
:105450000000000000000000FFF00000000000005D
:1054600040207BE00400000000004000800040007D
:1054700020002000400000000000000000000000AC
:105480000000000000000000000000001FCC000C25
:10549000000000000000000008003000600008006C
:1054A000300060000000022003FC1E20022003FCEC
:1054B0001E200220000000000E1811043FFF10847F
:1054C0000C78000000000F0010840F3800C007782F
:1054D00018840078000000780F8410C411240E98FE
:1054E00000E400840008080068007000000000006C
:1054F00000000000000000000000000007E0181895
:10550000200440020000000040022004181807E0B8
:105510000000000000000240024001800FF0018006
:105520000240024000000080008000800FF80080F0
:105530000080008000000001000D000E000000004F
:10554000000000000000000000800080008000805B
:105550000080008000800000000C000C00000000B3
:10556000000000000000000000060018006001803C
:10557000060018002000000007F0080810041004BE
:10558000080807F000000000080408041FFC0004DD
:1055900000040000000000000E0C10141024104441
:1055A00011840E0C000000000C18100411041104EA
:1055B00012880C700000000000E00320042408247E
:1055C0001FFC0024000000001F9810841104110427
:1055D000108810700000000007F008881104110402
:1055E00018880070000000001C00100010FC130060
:1055F0001C001000000000000E38114410841084BC
:1056000011440E38000000000700088C10441044BC
:10561000088807F00000000000000000030C030CE5
:105620000000000000000000000000010106000072
:105630000000000000000000008001400220041073
:10564000080810040000022002200220022002208C
:1056500002200220000000001004080804100220AC
:1056600001400080000000000E001200100C106CC1
:1056700010800F00000003E00C1813E4142417C47A
:10568000082807D000000004003C03C41C40074069
:1056900000E4001C000410041FFC11041104110498
:1056A0000E880070000003E00C18100410041004B1
:1056B00010081C10000010041FFC1004100410043B
:1056C000080807F0000010041FFC1104110417C49F
:1056D00010040818000010041FFC1104110017C06A
:1056E00010000800000003E00C181004100410441F
:1056F0001C780040000010041FFC10840080008013
:1057000010841FFC10040000100410041FFC10047F
:1057100010040000000000030001100110011FFE32
:1057200010001000000010041FFC1104038014641A
:10573000181C1004000010041FFC100400040004D6
:105740000004000C000010041FFC1F0000FC1F00E0
:105750001FFC1004000010041FFC0C04030000E0F8
:1057600010181FFC100007F00808100410041004A3
:10577000080807F0000010041FFC1084108010803F
:1057800010800F00000007F0081810241024101CCF
:10579000080A07F2000010041FFC1104110011C0D8
:1057A00011300E0C000400000E1C11041084108433
:1057B00010441C3800001800100010041FFC1004D6
:1057C00010001800000010001FF81004000400046E
:1057D00010041FF8100010001E0011E0001C0070E3
:1057E00013801C0010001FC0103C00E01F0000E0F0
:1057F000103C1FC000001004180C163401C001C07A
:105800001634180C100410001C00130400FC1304C0
:105810001C00100000000804101C10641084130405
:105820001C04101800000000000000007FFE400271
:10583000400240020000000030000C0003800060C5
:10584000001C0003000000004002400240027FFEF6
:1058500000000000000000000000200040004000A8
:1058600040002000000000010001000100010001D3
:105870000001000100010000400040002000000085
:1058800000000000000000000098012401440144D1
:10589000014400FC000410001FFC00880104010406
:1058A00000880070000000000070008801040104FE
:1058B0000104008800000000007000880104010459
:1058C00011081FFC0004000000F8014401440144D9
:1058D000014400C800000000010401040FFC110491
:1058E000110411001800000000D601290129012926
:1058F00001C90106000010041FFC00840100010022
:10590000010400FC000400000104190419FC000457
:105910000004000000000000000300010101190163
:1059200019FE0000000010041FFC0024004001B418
:10593000010C010400000000100410041FFC00040E
:10594000000400000000010401FC0104010001FC4E
:105950000104010000FC010401FC008401000100BD
:10596000010400FC0004000000F80104010401042B
:10597000010400F80000010101FF00850104010499
:10598000008800700000000000700088010401041D
:10599000010501FF00010104010401FC0084010470
:1059A000010001800000000000CC0124012401243A
:1059B00001240198000000000100010007F8010423
:1059C000010400000000010001F8000400040004CC
:1059D000010801FC0004010001800170000C0010AE
:1059E00001600180010001F0010C003001C00030B5
:1059F000010C01F0010000000104018C0074017031
:105A0000018C01040000010101810171000E0018E8
:105A100001600180010000000184010C0134014497
:105A20000184010C000000000000000000000100E3
:105A30003EFC400240020000000000000000FFFFAA
:105A40000000000000000000400240023EFC010097
:105A500000000000000000006000800080004000A6
:105A600040002000200000000000000000000000B6
:105A70000000000000000000000000000000000026
:105A80000000000000000000000000000000000016
:105A90000000000000000000000F80380FFE380FEB
:105AA000803800000000000000000000000000003E
:105AB000000000000100000600000C00003800009B
:105AC0003100000600000C0000380000300000002B
:105AD00000000000000061800067F807F9800061A5
