:020000040800F2
:10000000F80500200D020008791B00087D19000882
:10001000651A0008EB0A0008E9210008000000004A
:100020000000000000000000000000007D1B000830
:10003000750B0008000000007B1B0008051C000871
:1000400027020008270200082702000827020008EC
:1000500027020008270200082702000827020008DC
:1000600027020008270200082702000827020008CC
:1000700027020008270200082702000827020008BC
:1000800027020008270200082702000827020008AC
:10009000270200082702000827020008270200089C
:1000A00027020008251C000827020008191C000868
:1000B000270200082702000827020008270200087C
:1000C000270200082702000827020008270200086C
:1000D000270200082702000827020008270200085C
:1000E000270200082702000827020008270200084C
:1000F000270200082702000827020008270200083C
:10010000270200082702000827020008270200082B
:10011000270200082702000827020008270200081B
:10012000270200082702000827020008270200080B
:1001300027020008270200082702000827020008FB
:1001400027020008270200082702000827020008EB
:1001500027020008270200082702000827020008DB
:1001600027020008270200082702000827020008CB
:1001700027020008270200082702000800000000EC
:1001800027020008270200082702000827020008AB
:10019000270200082702000827020008270200089B
:1001A000270200082702000827020008270200088B
:1001B000270200082702000827020008270200087B
:1001C000270200082702000800000000270200089C
:1001D000270200082702000827020008270200085B
:1001E000270200082702000827020008270200084B
:1001F0002702000827020008DFF80CD000F0D0F931
:1002000000480047C5230008F8050020064880473D
:1002100006480047FEE7FEE7FEE7FEE7FEE7FEE7EB
:10022000FEE7FEE7FEE7FEE7091C0008F90100080B
:100230002DE9F05F0546002092469B46884606461B
:10024000814640241BE0284641464746224600F0AE
:1002500066F853465A46C01A914110D311461846C3
:10026000224600F04DF82D1A67EB01084F46224652
:100270000120002100F044F817EB00094E41201E38
:10028000A4F10104DFDC484631462A464346BDE876
:10029000F09F40EA01039B0703D009E008C9121F41
:1002A00008C0042AFAD203E011F8013B00F8013B30
:1002B000521EF9D27047D2B201E000F8012B491E5C
:1002C000FBD270470022F6E710B513460A460446F3
:1002D0001946FFF7F0FF204610BD421E12F8013FFD
:1002E000002BFBD111F8013B02F8013B002BF9D1A7
:1002F0007047421C10F8011B0029FBD1801A70477F
:10030000202A04DB203A00FA02F1002070479140D5
:10031000C2F1200320FA03F3194390407047202ACA
:1003200004DB203A21FA02F00021704721FA02F39F
:10033000D040C2F1200291400843194670470000A6
:100340000FB4002300B589B00CA900910B996FF090
:100350000042CB601E4B06931E4B07930423CDE94E
:1003600001321D4A089202466B46002000F0B0F9A7
:1003700009B05DF814FB70B586B006464FF0FF304B
:100380000091CDE90101002015460C46049032464B
:10039000694604A8FFF7D4FF02460498211825B146
:1003A00008B1084600E020462860049800280DD0D7
:1003B000002A02DD0098884208D0081B0094CDE98D
:1003C00001043246694604A8FFF7BAFF06B070BDC3
:1003D0000909000827090008C50500082DE9FE4F96
:1003E00081EA030404F0004421F0004100944FF03E
:1003F000000B23F0004350EA01045ED052EA0304EC
:100400005BD0C3F30A54C1F30A552C44A4F2F3346D
:100410000194A0FB0254C1F3130141F48011C3F312
:10042000130343F4801301FB024400FB034E840AD0
:10043000970A44EA815447EA8357A4FB0768029568
:100440008D0A05FB07854FEA932C04FB0C54270506
:10045000029D4FEA065847EA1637B5EB08056EEBE2
:10046000070C870E920E47EA811742EA8312A7FB18
:100470000201B6EB0B0164EB00042B0D43EA0C33D5
:100480005E1844EB1C50DA465146E7FB0201C5F307
:1004900013044FEA0B3343EA14534FEA0432019C2E
:1004A00043EA0603A4F10C040294009CCDE900B4D5
:1004B00000F059FA03B0BDE8F08F00200146F9E7DB
:1004C0002DE9F04D81EA030404F0004B21F00045D2
:1004D00014464FF0000A23F0004150EA050220D0F4
:1004E00054EA01021DD0C5F30A570246C5F31303AF
:1004F000C1F31300C1F30A5640F4801543F480138E
:10050000A7EB0608101BD64608F2FD3873EB050072
:1005100002D308F1010801E092185B41B8F1000F25
:1005200003DA00200146BDE8F08D00204FF4801171
:10053000064684460EE0171B73EB050705D3121B16
:1005400063EB050306434CEA010C49084FEA30000F
:1005500092185B4150EA0107EDD152EA030012D034
:1005600082EA040083EA0501084305D0101BAB4171
:1005700006D20122002306E000224FF0004302E0F1
:100580006FF0010253101AEB06004CEB085110EB10
:100590000A0041EB0B01BDE8F04D00F0D5B90000B9
:1005A000064C074D06E0E06840F0010394E80700C0
:1005B00098471034AC42F6D3FFF722FE74260008A9
:1005C00094260008C0B24FF4F05100F01BBA0000AE
:1005D0002DE9FF4F087881B09946FF2805D0491CC6
:1005E0002D2804D00024002308E000230BE0012480
:1005F000F9E703EB830300EB4303491C0878FF286A
:10060000F7D104B15B4200200090147801462D2CF4
:1006100001D02B2C04D1521C2D2C12D0002400947C
:1006200000251678FF2E0ED00A24A0FB04C801FB7B
:100630000481002700FB0711521C16EB0C006941D6
:10064000EFE70124EBE7994450EA01020ED00024C1
:10065000AA4D2646DFF8A88200F0E8F982468B46CC
:10066000B9F1000009DAC9F100071BE00198002187
:10067000C0E9001105B0BDE8F08F074612E0F807A9
:1006800007D022462B4630464146FFF7A7FE0646D6
:10069000884622462B4610461946FFF79FFE044621
:1006A0000D467F10002FEAD1B9F1000F32464346C4
:1006B0005046594602DAFFF703FF01E0FFF78EFECE
:1006C000009A0AB181F00041019AC2E90001D1E724
:1006D0002DE9FF4F1F468DB0D7E901464FF0FF3897
:1006E0002E2045464FF000090B90B9696D1C0E98FD
:1006F0008847396A824688470028F6D1BAF1FF3F19
:100700000AD024F4D064002E11DDBAF12B0F08D0EA
:10071000BAF12D0F0BD102E0404611B0ABE744F423
:100720008064B9696D1C0E9888478246761E6946BA
:10073000600501D52D2000E02B208DF8000001F18F
:10074000010B0DF1200809E0B9696D1C0E9888476E
:1007500082460F9844F40074761E0560002E02DD78
:10076000BAF1300FF0D00B998A453ED144F08004A5
:1007700006E00F99681CA9F1010944F400740860AF
:10078000B9696D1C761E0E98884782463028F0D0D5
:100790002BE00B998A4505D1200603D444F0800450
:1007A000761E18E0504601F07BFD08B30DF11301F1
:1007B000761E44F400748B4508D2AAF130000BF881
:1007C000010B200607D5A9F1010003E0200602D4A1
:1007D00009F101008146A00502D50F99681C086047
:1007E000B9696D1C0E9888478246002ED1DC53E013
:1007F000002E51DDBAF1650F02D0BAF1450F4BD191
:10080000A00549D5B9696D1C24F44074761E0E9874
:1008100088478246002E0CDD2B2804D0BAF12D0F1C
:1008200007D144F48074B9696D1C0E9888478246DC
:10083000761EE00501D52D2100E02B2108F8011BD3
:10084000CDF82C8021E00DF12901761E44F40074CE
:1008500088450CD2AAF1300010F0FF0088F80000A3
:1008600002D10B99884509D908F1010806E0E00595
:1008700001D5244801E042F20F708146B9696D1C30
:100880000E98884782460F980560002E04DD50467A
:1008900001F006FD0028D6D1F9690E988847FF209F
:1008A0008BF8000088F800000020069007904B4667
:1008B0006A4608A906A8FFF78BFEA00502D46FF0D0
:1008C00001002AE714F0240F0AD0E00714D1DDE973
:1008D00006123868031D3B600068C0E900120BE097
:1008E000DDE9060100F0AEF80146E00704D1386802
:1008F000021D3A600068016028460EE700002440AF
:100900000000F03FF1D8FFFF426842B1016811F8E2
:10091000013B23B1521EC0E9001218467047012165
:10092000C160881E704742685AB1C368016843B904
:1009300083688B4205D0491E521CC0E9001200207A
:1009400070474FF0FF30704710B5141E73F100046C
:1009500008DA401C41F1000192185B411A4301D1B1
:1009600020F0010010BD2DE9F04D92469B4611B1DB
:10097000B1FA81F202E0B0FA80F220329046FFF73D
:10098000BFFC04460F4640EA0A0041EA0B01534609
:100990005A46084313D0114653EA010019D0C8F152
:1009A00040025046FFF7BBFC05460E4650465946EE
:1009B0004246FFF7A5FC084305D0012004E020468D
:1009C0003946BDE8F08D0020054346EAE0762C4329
:1009D00037430A986305E40AA0EB08000022FD0AE9
:1009E00044EA47540A3002D500200146E9E70105F0
:1009F00010196941DDE9084500196941BDE8F04D6C
:100A0000A2E700007F2801D9002208E0064A02EB95
:100A10005002C007127800D1120902F00F02012023
:100A20009040084070470000322600080EB540F2A2
:100A3000334202920022CDE900221346FFF793FFD2
:100A400003B000BD01F0004330B421F0004150EA92
:100A5000010206D00A0DA2F56072C1F31301002A4B
:100A600002DC30BC00207047440F44EAC104C100DE
:100A7000E01830BC00EBC250AFF300800029A8BFE3
:100A80007047401C490008BF20F00100704710B4B7
:100A9000B0FA80FC00FA0CF050EA010404BF10BC6C
:100AA000704749B1CCF1200421FA04F411FA0CF199
:100AB00018BF012121430843A3EB0C01CB1D4FEAD2
:100AC00000614FEA102042BF002010BC704700EBCD
:100AD000C35010440029A4BF10BC7047401C4900FB
:100AE00008BF20F0010010BC7047FEE7F0B5BFF36F
:100AF0004F8FBFF36F8F1D4900200860BFF34F8FEA
:100B0000BFF36F8F1A4C216841F400312160BFF3AD
:100B10004F8FBFF36F8F164970310860BFF34F8F4F
:100B2000081F006843F6FF75104E1036C0F34E31B3
:100B3000C0F3C90305EA4112184642EA80773760DC
:100B4000401EFAD2491EF5D2BFF34F8F206840F401
:100B500080302060BFF34F8FBFF36F8F03484C305E
:100B6000016841F004010160F0BD000050EF00E0B9
:100B700014ED00E07047704770B5044600F008F9C6
:100B80000546601C02D004480078044400F000F9D7
:100B9000401BA042FAD370BD1C0000202DE9F84F85
:100BA000DFF894B100224FF003094FF00F0A0BF168
:100BB000040E0B68012595402B40AB4272D14C6866
:100BC000012C05D0022C03D0112C01D0122C10D1F5
:100BD0008668540009FA04F7BE43CF68A74037433C
:100BE00087604468AC430D79C5F3001595402543F3
:100BF0004560C46857008E6809FA07F5AC43BE40EB
:100C00002643C6604C68022C01D0122C12D1D408A5
:100C100000EB840CDCF820605407E40E0AFA04F8B8
:100C200026EA0806D1F8108008FA04F848EA06080F
:100C3000CCF820800468AC430D7905F00305BD4075
:100C4000254305604C68E4006FD53C4C256845F4AD
:100C500080452560246822F0030504F48044009454
:100C6000374C2E19D6F808789407250F0AFA05F4A0
:100C7000A743344CA04201D100242EE0324CA042C4
:100C800001D1012429E0314CA04201D1022424E009
:100C90002F4CA04201D103241FE02E4CA04202D1D0
:100CA00004241AE041E02C4CA04201D1052414E0B8
:100CB0002A4CA04201D106240FE0294CA04201D1C8
:100CC00007240AE0274CA04201D1082405E0264C65
:100CD000A04201D1092400E00A24AC403C43C6F8FC
:100CE0000848DBF800405D464E689C43F60300D59B
:100CF0001C432C60DEF8004075464E689C43B603EA
:100D000000D51C432C600C4D08352C684E689C4364
:100D1000F60200D51C432C60074D0C352C684E683C
:100D20009C43B60200D51C432C60521C102AFFF4D1
:100D300040AFBDE8F88F0000003C0140443802405D
:100D40000030014000000240000402400008024060
:100D5000000C024000100240001402400018024043
:100D6000001C0240002002400024024000690840AC
:100D700000D001207047426921EA02030A4043EA99
:100D80000241816170470AB1816170470904FBE744
:100D900001488068704700001C00002002488168FC
:100DA00002781144816070471C000020032010B5B8
:100DB00000F060F8002000F005F800F023F80020B3
:100DC00010BD000070B50D4D04464FF47A712878BF
:100DD000B1FBF0F00A490968B1FBF0F000F04EFBFE
:100DE00048B9102C07D200222146501E00F022F8EC
:100DF00000206C6070BD012070BD00001C00002050
:100E0000180000200A4808B5016841F080510160CF
:100E1000006800F0805000900548001D016841F412
:100E200080410160006800F48040009008BD00002F
:100E3000403802400E4BF0B41B68C3F30223C3F1E9
:100E40000704042C00D904241D1D072D01D2002302
:100E500000E0DB1E012606FA04F56D1E0D409D40E4
:100E60009E40761E164045EA0601F0BC01F0CEB960
:100E70000CED00E0064A00F0070110684FF6FF0392
:100E8000184040EA01200349084310607047000001
:100E90000CED00E00000FA051848F8B5016841F0D3
:100EA000805101600068164D00F080500090286865
:100EB00040F480302860FFF76BFF4FF47A760446E9
:100EC00004E0FFF765FF001BB0420FD86868C0035D
:100ED000F7D5286840F400302860FFF759FF044632
:100EE00006E0FFF755FF001BB04201D90320F8BD13
:100EF00068688003F5D50020F8BD00004038024046
:100F0000007000402DE9F04704000D4669D0DFF87D
:100F10001C81D8F8000000F00F00A8420CD2D8F8CD
:100F2000001021F00F012943C8F80010D8F8000084
:100F300000F00F00A84254D120683D4E810712D521
:100F4000400703D5306840F4E05030602078000757
:100F500003D5306840F4604030603068A16820F00C
:100F6000F000084330602078C00729D0304960681D
:100F70000839012810D00968022810D089070029F3
:100F80002FDA316821F0030101433160FFF700FFE0
:100F9000074641F288390CE009688903EFE78901C7
:100FA000EDE7FFF7F5FEC11B494502D90320BDE877
:100FB000F0873068616800F00C00B0EB810FF0D171
:100FC000D8F80010404601F00F01A9420BD9016882
:100FD00021F00F0129430160006800F00F00A842D2
:100FE00001D00120E3E72078400705D53068E168AB
:100FF00020F4E050084330602078000706D53068C0
:10100000216920F4604040EAC100306000F038F807
:101010003168084AC1F30311515CC84006490860B1
:1010200006480068FFF7CEFE0020C0E7003C024003
:10103000083802401A26000818000020200000206E
:101040000448054900680968044AC1F38221515CDB
:10105000C840704718000020083802402A260008BF
:101060000448054900680968044AC1F34231515CEB
:10107000C840704718000020083802402A2600089F
:10108000154810B5006810F00C01144813D0144B2B
:1010900004290FD008290ED10F4C241F216801F01C
:1010A0003F022168490207D52068C0F38810A0FBE1
:1010B000030106E0184610BD2168C1F38811A1FBA9
:1010C00000010023FFF7B4F82168C1F30141491C76
:1010D0004900B0FBF1F010BD083802400024F400D4
:1010E00040787D012DE9F84F04004FF0000877D0DB
:1010F0002078DFF864B3ABF10409C007A9F1040557
:101100004AD0DBF800105846C1F38101012908D00C
:101110000068C0F3810002280AD1D9F8000040021B
:1011200006D52868800337D560680028DFD033E013
:101130006068B0F5803F0BD010B1B0F5A02F11D092
:10114000286820F480302860286820F4802002E09D
:10115000286840F480302860606888B1FFF718FE86
:10116000064609E0286840F480202860F0E7FFF791
:101170000FFE801B642873D828688003F7D50BE026
:10118000FFF706FE064604E0FFF702FE801B642818
:10119000F1D828688003F7D42078800740D5DBF8A1
:1011A0000010584611F00C0F08D00068C0F3810001
:1011B00002280AD1D9F80000400206D42868800726
:1011C00017D5E06801280BD113E0E06800282868F3
:1011D00017D040F001002860FFF7DAFD064605E071
:1011E00035E1FFF7D5FD801B0228C4D828688007A9
:1011F000F7D52868216920F0F80040EAC10028608E
:101200000EE020F001002860FFF7C2FD064604E072
:10121000FFF7BEFD801B022822D828688007F7D47C
:101220002078000725D58C4F60696C370028386816
:101230000FD040F001003860FFF7AAFD064604E039
:10124000FFF7A6FD801B02280AD838688007F7D56B
:101250000FE020F001003860FFF79AFD064605E038
:1012600082E0FFF795FD801B02287DD83868800753
:10127000F7D42078400769D5DFF8DCA10AF1380AF5
:10128000DAF80000C0000CD4DAF8001041F0805108
:10129000CAF80010DAF800004FF0010800F08050A2
:1012A00000906E4F3868C0050FD4386840F48070E5
:1012B0003860FFF76DFD064604E0FFF769FD801B0F
:1012C000642851D83868C005F7D5634FA0686837DF
:1012D00001280AD008B1052811D0386820F0010093
:1012E0003860386820F0040002E0386840F00100FF
:1012F0003860A06898B1FFF74BFD06460BE03868F0
:1013000040F004003860F0E7FFF742FD811B41F236
:101310008830814267D838688007F5D50DE0FFF73F
:1013200037FD064606E0FFF733FD811B41F28830AA
:10133000814258D838688007F5D4B8F1000F05D03D
:10134000DAF8001021F08051CAF80010A169D9B371
:10135000DBF80000C0F3810002284BD02868022986
:1013600020F08070286000E03DE003D0FFF710FD22
:1013700004463BE0FFF70CFD064604E0FFF708FDDE
:10138000801B02282FD828688001F7D4D4E90701F0
:10139000334A0843A16A490802EB0141626A41EA03
:1013A0008211084394F82C1040EA016094F8301040
:1013B00040EA0171C9F80010286840F08070286088
:1013C000FFF7E6FC044605E043E0FFF7E1FC001B05
:1013D000022808D828688001F7D53AE0FFF7D8FC42
:1013E000001B022802D90320BDE8F88F286880017D
:1013F000F4D42EE0D9F80000012928D0E26900F4E5
:101400008001914223D1226A00F03F0191421ED116
:10141000626A47F6C0710140B1EB821F17D1A26A20
:101420004FF0FF3300F4403103EB5202B1EB024FB7
:101430000DD194F82C2000F07061B1EB026F06D151
:1014400094F8301000F0E040B0EB017F01D00120B3
:10145000CAE70020C8E700000838024000700040DA
:101460000000FFFF4FF0E0210428086903D020F0BE
:1014700004000861704740F00400FAE7401EB0F134
:10148000807F10B501D3012010BD4FF0E0246061D2
:101490000F21601700F0BAFE0020A0610720206134
:1014A000002010BD704770472DE9F04101682E48BB
:1014B000814257D181152D48FFF758FC2C4D00264D
:1014C0002C4C4FF6F57770B12868016A39400162FB
:1014D0002868016A41F002010162286846622078AA
:1014E00040F010003DE02248002100F027F980B2D2
:1014F000608029680A6A3A400A6229680A6A0A62B0
:101500002178CA062AD50B064FF4F9721DD5A0F230
:101510002D13934202D86068400009E0A0F279528E
:101520004FF4C7739A4205D86068400040F001004C
:10153000606013E0A0F6990098420FD86078401CD4
:10154000607001F0F000207008E0A0F5805069386C
:10155000904203D841F0800020706670207820F01F
:1015600010002070BDE8F081000001400000024042
:10157000B80100201000002070B504460068016921
:101580004FF00005C943890715D4C168C9438907CD
:1015900011D4E91E0161012020762068806980074E
:1015A000204602D0FFF780FF04E000F0A5F82046B7
:1015B00000F0A3F8257620680169C943490717D4CC
:1015C000C168C943490713D46FF0040101610220C7
:1015D00020762068806910F4407F204602D0FFF713
:1015E00063FF04E000F088F8204600F086F82576D6
:1015F00020680169C943090716D4C168C9430907AE
:1016000012D46FF008010161042020762068C069BF
:101610008007204602D0FFF747FF04E000F06CF897
:10162000204600F06AF8257620680169C943C9069A
:1016300017D4C168C943C90613D46FF01001016102
:10164000082020762068C06910F4407F204602D030
:10165000FFF72AFF04E000F04FF8204600F04DF8B5
:10166000257620680169C943C90708D1C168C94303
:10167000C90704D1891E0161204600F03FF82068A7
:1016800001696FF08005C943090607D4C168C943E1
:10169000090603D405612046FFF704FF20680169AD
:1016A000C943C90507D4C168C943090603D4056104
:1016B0002046FFF7F7FE20680169C943490609D4AF
:1016C000C168C943490605D46FF040010161204655
:1016D00000F056F820680169C94389060BD4C16837
:1016E000C943890607D46FF0200101612046BDE897
:1016F0007040FFF7D8BE70BD7047704700680D4955
:10170000884215D10C490878020611D520F0100046
:101710000870020702D140F040000870C0B200F02B
:101720000F020E2A01D2401C01E000F07000087088
:1017300070470000000001401000002090F8383091
:101740000022012B0AD0012380F8383041B104294E
:1017500009D008290AD00C290DD10AE002207047CF
:1017600001684A6B07E001688A6B04E00168CA6B94
:1017700001E001680A6C002180F8381010467047BB
:101780007047704710B5040002D0A06F10B107E099
:10179000012010BD002084F87400204600F026F8D7
:1017A0002420A0672068016821F001010160204623
:1017B00000F068FB0128ECD0606A10B1204600F010
:1017C00053FA2068416821F49041416020688168A3
:1017D00021F02A0181602068016841F00101016067
:1017E0002046BDE8104000F0A3BA0000F0B587B075
:1017F000044614216846FEF765FD1F4F002321684B
:1018000002241E4A03251E480726B94213D11B494C
:1018100014310F6847F010070F60096801F01001DC
:101820000591116841F001011160116801F0010199
:101830000591690215E0134FB9421AD10F491031D1
:101840000F6847F400370F60096801F40031059113
:10185000116841F001011160116801F00101059169
:101860000C2102AFCDE90014694687E86800FFF754
:1018700095F907B0F0BD000000100140303802407B
:10188000000002400044004010B4C36F202B18D168
:10189000A1B19AB190F87430012B12D0012380F8D5
:1018A00074300023036603685C68240203D51C6857
:1018B00044F080641C6010BC00F0FEBB012010BC32
:1018C00070470220FBE770472DE9F8430446806F1C
:1018D0001F4615460E4620284ED1CEB1C5B194F80C
:1018E0007400012848D0012084F874004FF00008EB
:1018F000C4F880802120A067FFF74AFAA4F850506E
:101900008146A4F85250A068B0F5805F03D004E08F
:101910000120BDE8F883206920B13546002684F80F
:10192000748010E00025FAE78021204600F00CFCCE
:10193000B8B9C5B115F8010B21688862B4F8520036
:10194000401EA4F85200B4F852004B464FF000027B
:1019500000970028E8D14FF04001204600F0F4FB4A
:1019600030B10320D5E736F8020BC0F30800E3E7F7
:101970002020A0670020CCE70220CAE7FEE7000095
:1019800010B586B014216846FEF79CFC1548016826
:1019900041F080010160016801F08001059101685A
:1019A00041F001010160016801F001010591016848
:1019B00041F002010160006800220B4C032100F09D
:1019C000020005902046FFF7DEF901200321CDE952
:1019D000001000212046029103916946FFF7DEF8CE
:1019E00006B010BD30380240000402400D480C2201
:1019F0000B4910B501604FF4E13141600021816075
:101A0000C160C0E904128161C16101624162FFF7F6
:101A1000B9FE002803D0BDE81040FFF7ACB810BDF8
:101A200000100140B00000200D480C220B4910B5F9
:101A300001604FF4E131416000218160C160C0E983
:101A400004128161C16101624162FFF79BFE0028BF
:101A500003D0BDE81040FFF78EB810BD0044004031
:101A600034010020FEE7000070B596B01446342221
:101A70000D46364906466846FEF70BFC0A223046FC
:101A800010A900F081FD10A8FEF733FC012805D055
:101A900010A8FEF72EFC022802D005E02CA100E0E1
:101AA0002CA16846FEF719FC10A96846FEF715FC44
:101AB0000A22284613A900F067FD13A8FEF719FCB7
:101AC000032805D013A8FEF714FC042802D005E073
:101AD00021A100E021A16846FEF7FFFB13A968469B
:101AE000FEF7FBFB0A2220460DA900F04DFD0DA8D4
:101AF000FEF7FFFB02280AD00DA8FEF7FAFB032829
:101B000007D00DA8FEF7F5FB042804D007E014A1C8
:101B100002E014A100E014A16846FEF7DEFB0DA967
:101B20006846FEF7DAFB11A16846FEF7D6FB3221C4
:101B3000684600F07DF80EA0694600F057FB0D489E
:101B40000221FFF718F916B070BD0000E825000863
:101B50003030000030000000503000005000000025
:101B6000543030005430000054000000210D0A00B1
:101B70002573000000040240704770477047000062
:101B800030B51E4C93B0256845F08055256024681B
:101B900004F0805412941A4C256845F440452560A1
:101BA00024680DF1240C04F44044129401240094A0
:101BB00024040194022406948CE80D00650568460F
:101BC000CDE90751FFF78EFA00B1FEE7FFF764F9A0
:101BD00000B1FEE70F20CDE90D0400200F904FF477
:101BE000A05010904FF48050119007210DA8FFF7DE
:101BF00089F9002800D0FEE713B030BD403802401C
:101C000000700040FFF7CAB80248016841F4700153
:101C10000160704788ED00E00148FFF7ADBC0000AF
:101C2000B80100200148FFF7A7BC0000B801002060
:101C30002DE9F0410B4F00244FF47A780D4606460B
:101C40000CE00848311901224346FFF73DFE386891
:101C5000C169C9430906FBD4641CA4B2AC42F0D3E9
:101C6000BDE8F0813401002090F82410C90706D0A7
:101C700001684A68836A22F400321A434A6090F885
:101C80002410890706D501684A68C36A22F48032A5
:101C90001A434A6090F82410490706D501684A683B
:101CA000036B22F480221A434A6090F8241009073B
:101CB00006D501684A68436B22F400421A434A6021
:101CC00090F82410C90606D501688A68836B22F44F
:101CD00080521A438A6090F82410890606D501685C
:101CE0008A68C36B22F400521A438A6090F8241069
:101CF000490611D501684A68036C22F480121A4320
:101D00004A60016CB1F5801F06D101684A68436CD6
:101D100022F4C0021A434A6090F82410090606D53E
:101D200001684A68806C22F4002202434A607047CE
:101D3000F8B500250446C0F88050FFF729F807469B
:101D4000206800686FF07E46000708D500223B46F9
:101D50004FF400112046009600F0F6F960B92068B3
:101D6000006840070AD500223B464FF48001204618
:101D7000009600F0E9F908B10320F8BD2020A06723
:101D8000E0672566002084F87450F8BD70B5B0F89F
:101D90005C100446C26F0068222A04D0816941F0B9
:101DA0000801816170BD406A626D08401080606DFD
:101DB000801C6065B4F85A00401EA4F85A00B4F8BC
:101DC0005A000028EED12068016821F4907101606A
:101DD0002068816821F0010181602020E0670025F2
:101DE0006566206E012804D02046FFF76CFD25664D
:101DF00070BD2068016821F010010160B4F858102E
:101E00002046FFF7BEFCF2E770B5B0F85C10044660
:101E1000C26F0068222A04D0816941F00801816103
:101E200070BD406A0840616D0870606D401C60655F
:101E3000B4F85A00401EA4F85A00B4F85A0000281A
:101E4000EED12068016821F49071016020688168FA
:101E500021F0010181602020E06700256566206E89
:101E6000012804D02046FFF72EFD256670BD2068AE
:101E7000016821F010010160B4F858102046FFF706
:101E800080FCF2E770B50446816800690025E269CC
:101E90000143606910430143206802687B4B1A408C
:101EA0000A43026020684168E26821F4405111430E
:101EB0004160216AA06901432068826822F430628F
:101EC0000A438260724B4FF4004220687149984285
:101ED0000AD1086810F0030052D001287CD00228F3
:101EE0007BD003286ED187E06B4B98420AD10868FB
:101EF00010F00C007AD004287CD0082878D00C2868
:101F000060D179E0654B98420AD1086810F0300042
:101F10006CD010286ED020286AD0302852D16BE0C7
:101F20005F4B98420AD1086810F0C0005ED040288C
:101F300060D080285CD0C02844D15DE0594B9842E5
:101F40000DD1086810F4407050D0B0F5807F51D0AA
:101F5000B0F5007F4CD0B0F5407F33D14CE0524B10
:101F600098420FD1086810F4406009D0B0F5806F36
:101F700040D0B0F5006F3BD0B0F5406F22D13BE0D0
:101F8000012120E0494B98420DD1086810F44050DF
:101F90002CD0B0F5805F2DD0B0F5005F28D0B0F523
:101FA000405F0FD128E0424B98420BD1086810F4F3
:101FB00040401BD0B0F5804F1CD0904218D0B0F5F7
:101FC000404F19D01021E3693A484FF6EF7693421B
:101FD00034D109294ED202E00CE009E006E0DFE846
:101FE00001F00D1015492A49494916000021EAE778
:101FF0000221E8E70421E6E70821E4E7FFF720F8FB
:1020000001E0FFF72DF8020001D13AE002466068D6
:10201000510001EB5001B1FBF0F080B2A0F11001D2
:10202000B14227D84FF6F0710140C0F3420001439E
:102030002068C16025E0FFF723F8E4E7092919D2F9
:10204000DFE801F005080D181A1818180E00FEF741
:10205000F7FF01E0FFF704F8020001D111E00246AA
:10206000606802EB5001B1FBF0F080B2A0F110010A
:10207000B14204D9012504E0FFF702F8ECE721683A
:10208000C86000206066A066284670BDF369FFEF57
:1020900000100140903802400044004000480040D9
:1020A000004C004000500040001401400078004007
:1020B000007C00400024F40030B54165A0F85820B1
:1020C000A0F85A2000224266FF2381684FF4805511
:1020D000A94204D1016921BB40F2FF1127E07F240E
:1020E000E9B1B1F1805F1FD0A0F85C20C0F880207A
:1020F0002221C16701688B6843F001038B6081680E
:10210000A94201D10169C1B10D49416680F874202D
:102110000068016841F490710160002030BD0169E0
:1021200041B9A0F85C30E1E7016919B13F21A0F89D
:102130005C10DBE7A0F85C40D8E70249E5E7000067
:10214000091E00088D1D00082DE9F0471F46904626
:102150000E460446089D4FF0000A4FF0200937E074
:10216000681C35D0FEF714FEC01BA84221D805B369
:102170002068016849072BD5C069C043000527D4F2
:1021800021684FF4006008622068016821F4D07172
:1021900001602068816821F001018160C4F87890B5
:1021A000C4F87C90C4F88090032084F874A0BDE843
:1021B000F0872068016821F4D0710160206881688F
:1021C00021F001018160C4F87890C4F87C90EBE7BD
:1021D0002068C06936EA000004D000204045BFD026
:1021E0000020E4E70120F9E7FEE700000FB4054B0B
:1021F00010B503A9044A029800F059F810BC5DF824
:1022000014FB000099230008280000200907090E8C
:10221000002804DB00F1E02080F80014704700F093
:102220000F0000F1E02080F8141D7047000000004E
:1022300030B583B0044600F017F89FED090B054652
:102240008DED000B002221466846FEF794F82846E3
:1022500000F020F89DED000B03B030BD0000000041
:102260000000000000000000014800687047000006
:102270002C00002002E008C8121F08C1002AFAD171
:1022800070477047002001E001C1121F002AFBD1F6
:102290007047000001490860704700002C000020D2
:1022A00030380A2801D201207047002070472DE9FC
:1022B000F84F9946924688460546002706E02528AD
:1022C0000AD051464A4690476D1C7F1C287800284A
:1022D000F5D13846BDE8F88F002315F8011F1846E0
:1022E0002E2915D115F8011F04232A290DD06FF0CE
:1022F0002F022978A1F13004092C09D800EB8000C5
:1023000002EB400008446D1CF3E758F8040B6D1C09
:102310002A78002ADDD0632A07D0732A0FD010460E
:1023200051464A4690477F1C2AE018F8042B8DF846
:10233000002000218DF801106E46012103E058F8BD
:10234000046B4FF0FF315A074FF0000401D409E04D
:10235000641C84420BDA8C42FADB325D002AF7D12E
:1023600005E0641C8C42FCDB305D0028F9D1274479
:1023700004E016F8010B51464A469047641EF8D215
:102380006D1CA3E710B504460420FFF76BF8014865
:10239000046010BD0C00002038B5012204464FF443
:1023A0007A7369468DF800000548FFF78DFA0448F6
:1023B0000168CA69D2431006FBD4204638BD00002C
:1023C000B0000020FEF792FB0923022219214FF4EE
:1023D000D870FFF7D5FBD820FFF7D4FFFEF7E6FC57
:1023E000FFF7CEFAFFF702FBFFF71EFB6049402222
:1023F0006048FFF749FADFF87C9101275E4C002521
:10240000DFF878A14FF4FA68D9F87C00202807D1CA
:102410006088000407D4564940225648FFF734FA32
:102420006088000423D565606770A67850493246FD
:10243000658001F14000FDF72CFF4D484030855587
:10244000FFF7F6FEB7EEC00B4D4910EE100A84ED13
:10245000020A884201DB277010E010EE100A494999
:10246000884201D3022000E00320207006E060686B
:10247000401C6060642801DD6570257020780528A7
:1024800030D2DFE800F00318374D630032224646B1
:1024900001204146FFF7E8FA322231460220FFF7D9
:1024A000E3FA4FF47A76322231460320FFF7DCFA62
:1024B0003222314613E0282241460120FFF7D4FAA8
:1024C000282240F29E710220FFF7CEFA282240F225
:1024D000BC710320FFF7C8FA28224FF4FF610420E3
:1024E000FFF7C2FA01215046FEF745FC0420FEF733
:1024F00043FB89E7282201204FF46171FFF7B4FA0A
:10250000282240F28E310220FFF7AEFA282240F254
:1025100066310320FFF7A8FA282240F25231DEE7A5
:10252000322240F64C110120FFF79EFA40F23E366F
:10253000322231460220FFF797FA32223146032039
:10254000FFF792FA322240F62E11C8E7002201204E
:102550001146FFF789FA002202201146FFF784FA9C
:10256000002203201146FFF77FFA00221146B6E74A
:102570003000002034010020000000200004024050
:102580000000A0400000A0C0F0B5002504460A2AC3
:102590000B462E4602D018460E70F0BD002C1ED001
:1025A00006DA4FF02D00187001F10103C4F10004A8
:1025B00042F210704FF00A0794FBF0F252EA050C59
:1025C00006D002FB104402F1300503F8015B01253F
:1025D00090FBF7F00028EFDC08461E70F0BD3020BD
:1025E00018704B1CF8E700002300000000000000FA
:1025F00000000000000000000000000000000000DB
:1026000000000000000000000000000000000000CA
:1026100000000000000000000000000000000000BA
:10262000000001020304060708090000000001027F
:102630000304DDDDDDDDDCBBBBDDDDDDDDDDDDDDC2
:10264000DDDD9888888888888888777777777788A5
:1026500088888555555666666666666666666668E7
:1026600088888333333222222222222222222228E5
:10267000888D000094260008000000203000000033
:1026800074220008C426000830000020C80500009D
:10269000842200080000000000000000000000008C
:1026A0000000000000000000000000000024F40012
:1026B0000100000010000000000000000000000009
:0426C0000000000016
:04000005080001F9F5
:00000001FF
